:1000000002614F908EF9EEF0A3EFF07B017A8E79CA
:10001000F9908F30E4F0A304F07FA07E001250FD31
:0100200022BD
:07002300026BF012005E22E7
:10002B00026479E4F58E75C870F593759401759536
:10003B0002F5C9F5F875F901F5A8F5B8F59AF5A922
:06004B00F5B953C9FD22C6
:03005300026DEB50
:10005B000245DC908802E064207051A3E070187FA9
:10006B0001FE120003E4908820F0A3F090881FF0AB
:10007B0090880204F0802990881DE014F0E0FF12B4
:10008B004D6F9088027404F090881DE02404F58273
:10009B00E43488F583E4F090881DE004F05407F015
:1000AB00908803E0D394004003E014F0908802E0C2
:1000BB006401703390881CE0FFA3E0B50707E4FDF3
:1000CB00FCFF126D249088027408F090881DE0FFED
:1000DB00124D6F9088037403F090880204F090889F
:0800EB001DE004F05407F022AF
:1000F800FFFF4457494E54350204C1E86480F8E9CB
:1001080033E83360110460F0ED33EC337009E8FC38
:10011800E9FDEAFEEBFF220460DED3EB9FEA9EE9ED
:100128009DE8C2E78CF0C2F795F0400CE8CCF8E9FE
:10013800CDF9EACEFAEBCFFB12048C85D0F0580447
:10014800700320D5B3E80470075002B2D50204CB7F
:1001580092D5EC0460F7E4CCC0E0C398F8603B9417
:10016800186008400DD0E0FB0204A3E4FBFAC9FCC8
:100178008028E830E406E4C9FBE4CAFCE830E3057B
:10018800E4C9CACBFCE854076010F8C3E913F9EADC
:1001980013FAEB13FBEC13FCD8F130F52FC3E49CF6
:1001A800FCEF9BFFEE9AFEED99FDD0E0FBEF4E4D84
:1001B8004C701222DB030204C8EC2CFCEF33FFEE78
:1001C80033FEED33FDED30E7EB0204A3EF2BFFEE3A
:1001D8003AFEED39FDD0E0FB50130BBB00030204DF
:1001E800CBED13FDEE13FEEF13FFEC13FC0204A39B
:1001F800EC4D6011E8497017ED33EC3304600DE401
:10020800FCFFFEFD22E933E8330470F80204C11252
:10021800048C58046009E4CC248150062850090253
:1002280004CB2840030204C8C0E0EB4A7044B980FC
:1002380006D0E0FB0204B7EF4E701CBD8008EBFF50
:10024800EAFEE9FD80EBE98DF0A4FEE5F00202E1AB
:10025800E9CDF9EAFEEBFFEF89F0A4FCE5F0CE89E1
:10026800F0A42EFFE435F0CD89F0A42DFEE435F09E
:100278008067EF4E7005BD80D780C3EF8BF0A4ACCC
:10028800F0EE8BF0A42CFCE435F0F8EF8AF0A42C07
:10029800E5F038FCE433CB8DF0A42CFCE5F03BF81A
:1002A800EE8AF0A42CFCE5F038F8E433CF89F0A40A
:1002B8002CFCE5F038CF3400CE89F0A42FFFE5F010
:1002C8003EFEE433C98DF0A42EFEE5F039CD8AF068
:1002D800A42FFFE5F03EFEE43DFD33D0E0FB5007E0
:1002E8000BBB000F0204CBEC2CFCEF33FFEE33FE0C
:1002F800ED33FD0204A30204CBEC5D046005E8596C
:100308000470030204C112048C580460F6EC4860BF
:10031800F2EC7004FDFEFF22C860DB2481C850099E
:10032800C398600250060204C89850CAF582E929A9
:100338004B4A7005AB820204B775F0007C1A7880CE
:10034800C3EF9BEE9AED99400DC3EF9BFFEE9AFE2B
:10035800ED99FDE842F0DC23ACF0D0E0FFD0E0FE00
:10036800D0E0FDAB8220E7101BEB60BAEC2CFCEF71
:1003780033FFEE33FEED33FD0204A3E803F830E764
:1003880005C0F075F000EF2FFFEE33FEED33FD40B2
:10039800B830E7C280AA74F8CC6480CCC86480C83E
:1003A800F58204604FC3EB9FF5F0EA9E42F0E99DA9
:1003B80042F0E89C45F0603C501DE5825FFFE58215
:1003C800D313CB5BCBF42B5582FB50280ABA0024FD
:1003D80009B9002008801DE5825BFBE582D313CFB5
:1003E8005FCFF4C3132F5582FF50090EBE00050DD1
:1003F800BD00010CC3EB9FF5F0EA9E42F0E99D4277
:10040800F0E89C45F06007CC4820E701B3EC227582
:10041800F020800E75F010800575F0087D007E00D4
:100428007F003392D530D5031208CBEC334010EF60
:1004380033FFEE33FEED33FDEC33FCD5F0ED22E572
:10044800F0247EA2D513CC92E7CDCEFF22EDD2E7E1
:10045800CD33EC3392D524814006E4FFFEFDFC2227
:10046800FCE4CFCECDCC24E0501174FF80EDC3CC9A
:1004780013CCCD13CDCE13CECF13CF0470F030D51F
:10048800DE0208CBE9D2E7C933E833F892D5EDD2DA
:10049800E7CD33EC33FC5002B2D522EC30E7100F35
:1004A800BF000C0EBE00080DBD00040BEB6014A2CB
:1004B800D5EB13FCED92E7FD2274FFFCFDFEFF2255
:1004C800E480F8A2D574FF13FC7D80E480EFE7098F
:1004D800F608DFFA8046E709F208DFFA803E8882EC
:1004E8008C83E709F0A3DFFA8032E309F608DFFA24
:1004F8008078E309F208DFFA807088828C83E30948
:10050800F0A3DFFA806489828A83E0A3F608DFFA21
:10051800805889828A83E0A3F208DFFA804C80D26F
:1005280080FA80C680D4806980F28033801080A6EB
:1005380080EA809A80A880DA80E280CA8033898243
:100548008A83ECFAE493A3C8C582C8CCC583CCF0EF
:10055800A3C8C582C8CCC583CCDFE9DEE7800D8996
:10056800828A83E493A3F608DFF9ECFAA9F0EDFB9D
:100578002289828A83ECFAE0A3C8C582C8CCC583E5
:10058800CCF0A3C8C582C8CCC583CCDFEADEE8803E
:10059800DB89828A83E493A3F208DFF980CC88F0B0
:1005A800EF60010E4E60C388F0ED2402B4040050E1
:1005B800B9F582EB2402B4040050AF23234582230B
:1005C80090052673BB010689828A83E0225002E7E0
:1005D80022BBFE02E32289828A83E49322BB010CB8
:1005E800E58229F582E5833AF583E0225006E9257C
:1005F80082F8E622BBFE06E92582F8E222E5822996
:10060800F582E5833AF583E49322BB010689828A61
:1006180083F0225002F722BBFE01F322F8BB010D42
:10062800E58229F582E5833AF583E8F0225006E968
:100638002582C8F622BBFE05E92582C8F222EF8D85
:10064800F0A4A8F0CF8CF0A428CE8DF0A42EFE2222
:10065800BC000BBE0029EF8DF084FFADF022E4CC86
:10066800F875F008EF2FFFEE33FEEC33FCEE9DEC4F
:10067800984005FCEE9DFE0FD5F0E9E4CEFD22ED95
:10068800F8F5F0EE8420D21CFEADF075F008EF2FDF
:10069800FFED33FD4007985006D5F0F222C398FDD0
:1006A8000FD5F0EA22C5F0F8A3E028F0C5F0F8E588
:1006B80082158270021583E038F022A3F8E0C5F0B5
:1006C80025F0F0E582158270021583E0C838F0E85D
:1006D80022BB010A89828A83E0F5F0A3E022500652
:1006E80087F009E71922BBFE07E3F5F009E31922B1
:1006F80089828A83E493F5F074019322BB0110E5A3
:100708008229F582E5833AF583E0F5F0A3E02250EB
:1007180009E92582F886F008E622BBFE0AE9258267
:10072800F8E2F5F008E222E5832AF583E993F5F08B
:10073800A3E99322BB010DC58229C582C5833AC5A9
:10074800830206AD5011C58229F808E5F026F6188F
:10075800F5F0E58236F622BBFE11C58229F808E2DB
:1007680025F0F5F0F218E23582F222F8E58229F553
:1007780082E5832AF58374019325F0F5F0E4933834
:1007880022BB010A89828A83F0E5F0A3F022500691
:10079800F709A7F01922BBFE06F3E5F009F31922C1
:1007A800F8BB0111E58229F582E5833AF583E8F083
:1007B800E5F0A3F0225009E92582C8F608A6F02240
:1007C800BBFE09E92582C8F2E5F008F222EF2BFF0B
:1007D800EE3AFEED39FDEC38FC22C3EF9BFFEE9AB2
:1007E800FEED99FDEC98FC2275F008758200EF2F5C
:1007F800FFEE33FECD33CDCC33CCC58233C5829BDF
:10080800ED9AEC99E58298400CF582EE9BFEED9A04
:10081800FDEC99FC0FD5F0D6E4CEFBE4CDFAE4CCA0
:10082800F9A88222B800C1B90059BA002DEC8BF0A2
:1008380084CFCECDFCE5F0CBF97818EF2FFFEE335F
:10084800FEED33FDEC33FCEB33FB10D7039940048A
:10085800EB99FB0FD8E5E4F9FA227818EF2FFFEEB1
:1008680033FEED33FDEC33FCC933C910D7059BE9E2
:100878009A4007EC9BFCE99AF90FD8E0E4C9FAE43E
:10088800CCFB2275F010EF2FFFEE33FEED33FDCCDD
:1008980033CCC833C810D7079BEC9AE899400AEDC7
:1008A8009BFDEC9AFCE899F80FD5F0DAE4CDFBE46F
:1008B800CCFAE4C8F922EF4BFFEE4AFEED49FDEC15
:1008C80048FC22C3E49FFFE49EFEE49DFDE49CFCFB
:1008D80022EB9FF5F0EA9E42F0E99D42F0E89C4544
:1008E800F022E8600FECC313FCED13FDEE13FEEFEE
:1008F80013FFD8F122E8600FEFC333FFEE33FEEDAC
:1009080033FDEC33FCD8F122E0FCA3E0FDA3E0FECC
:10091800A3E0FF22E0F8A3E0F9A3E0FAA3E0FB22BA
:10092800ECF0A3EDF0A3EEF0A3EFF022A88285830C
:10093800F0D083D08212094B12094B12094B1209CD
:100948004BE473E493A3C583C5F0C583C8C582C8C7
:10095800F0A3C583C5F0C583C8C582C822A4258273
:10096800F582E5F03583F58322E0FBA3E0FAA3E006
:10097800F922F8E0FBA3A3E0F925F0F0E58215825F
:1009880070021583E0FA38F022EBF0A3EAF0A3E94D
:10099800F022BB010DE58229F582E5833AF5830251
:1009A80009715007E92582F8020AD5BBFE07E92537
:1009B80082F8020AE7E58229F582E5833AF583029F
:1009C8000AF9BB0120E58229F582E5833AF583D04F
:1009D800F0D0E0F8D0E0F9D0E0FAD0E0FBE8C0E0F1
:1009E800C0F00209915018E92582F8D083D082D04E
:1009F800E0F9D0E0FAD0E0FBC082C083020ADEBB97
:100A0800FE18E92582F8D083D082D0E0F9D0E0FA48
:100A1800D0E0FBC082C083020AF022D083D082F8E3
:100A2800E4937012740193700DA3A393F874019367
:100A3800F5828883E4737402936860EFA3A3A380AC
:100A4800DFD083D082F8E4937012740193700DA301
:100A5800A393F8740193F5828883E473740293B5C1
:100A6800F0067403936860E9A3A3A3A380D88A83DC
:100A78008982E473EC8EF0A4CCC5F0CCCDF8EFA459
:100A8800CEC5F02DFDE43CFCE8A42EC8C5F03DFD24
:100A9800E43CFCEFA4FFE5F028FEE43DFDE43CFC6B
:100AA80022EF4E6012EF60010EEDBB010B89828AC6
:100AB80083F0A3DFFCDEFA2289F05007F709DFFC98
:100AC800A9F022BBFEFCF309DFFCA9F022E6FB0833
:100AD800E6FA08E6F922EBF608EAF608E9F622E271
:100AE800FB08E2FA08E2F922EBF208EAF208E9F276
:100AF80022E493FB740193FA740293F922908F0411
:100B0800EEF0A3EFF09090C1E0FEA3E08EF0120AA1
:100B1800490B2D00010E3F0002101200030CB60015
:100B280004000011E49090E1E0FEA3E0FF908F063E
:100B3800EEF0A3EFF0908F04E0FEA3E0C3940BEE79
:100B480094004003020C7F908F04E0A3E0640A4EF7
:100B58007006908F04F0A3F09090AFE0FEA3E090B1
:100B6800903575F02E120965EE75F02EA42583F5E3
:100B780083E0FEA3E0D3940FEE9427401A908F06EB
:100B8800E0FEA3E0FF7C277D10120658908F06EC4C
:100B9800F0A3EDF0020C579090AFE0FEA3E0909028
:100BA8003575F02E120965EE75F02EA42583F583B0
:100BB800E0FEA3E0D394E7EE94034019908F06E09B
:100BC800FEA3E0FF7C037DE8120658908F06ECF048
:100BD800A3EDF0807A9090AFE0FEA3E09090357599
:100BE800F02E120965EE75F02EA42583F583E0FE3C
:100BF800A3E0D39463EE94004019908F06E0FEA31F
:100C0800E0FF7C007D64120658908F06ECF0A3ED9F
:100C1800F0803C9090AFE0FEA3E090903575F02E08
:100C2800120965EE75F02EA42583F583E0FEA3E096
:100C3800D39409EE94004017908F06E0FEA3E0FFDE
:100C48007C007D0A120658908F06ECF0A3EDF09018
:100C58008F06E0FEA3E0FF7C007D0A120646908F17
:100C680006EEF0A3EFF0908F04E0FEA3E0FFA3EE02
:100C78008FF01206AD8017908F06E0FEA3E0FF7C90
:100C8800007D0A120658908F06EEF0A3EFF0908FC1
:100C980006E0FEA3E0FF9090E1EEF0A3EFF0909065
:100CA800E1E0FCA3E0FD7F027E00126B252290901C
:100CB800E7E0FEA3E0FF908F06EEF0A3EFF0908F41
:100CC80004E0FEA3E0C3940BEE94004003020E0878
:100CD800908F04E0A3E0640A4E7006908F04F0A39E
:100CE800F09090AFE0FEA3E090903975F02E1209D5
:100CF80065EE75F02EA42583F583E0FEA3E0D3947A
:100D08000FEE9427401A908F06E0FEA3E0FF7C27A1
:100D18007D10120658908F06ECF0A3EDF0020DE05E
:100D28009090AFE0FEA3E090903975F02E1209651F
:100D3800EE75F02EA42583F583E0FEA3E0D394E7B7
:100D4800EE94034019908F06E0FEA3E0FF7C037D3C
:100D5800E8120658908F06ECF0A3EDF0807A909098
:100D6800AFE0FEA3E090903975F02E120965EE759C
:100D7800F02EA42583F583E0FEA3E0D39463EE94DC
:100D8800004019908F06E0FEA3E0FF7C007D64120E
:100D98000658908F06ECF0A3EDF0803C9090AFE001
:100DA800FEA3E090903975F02E120965EE75F02ECD
:100DB800A42583F583E0FEA3E0D39409EE940040D4
:100DC80017908F06E0FEA3E0FF7C007D0A1206580C
:100DD800908F06ECF0A3EDF0908F06E0FEA3E0FF05
:100DE8007C007D0A120646908F06EEF0A3EFF09085
:100DF8008F04E0FEA3E0FFA3EE8FF01206AD80178C
:100E0800908F06E0FEA3E0FF7C007D0A1206589052
:100E18008F06EEF0A3EFF0908F06E0FEA3E0FF90C0
:100E280090E7EEF0A3EFF09090E7E0FCA3E0FD7F01
:100E3800027E00125DA8229090E3E0FEA3E0FF90FE
:100E48008F06EEF0A3EFF0908F04E0FEA3E0C394CA
:100E58000BEE94004003020F30908F04E0A3E0648F
:100E68000A4E7006908F04F0A3F09090E9E0FEA37C
:100E7800E064044E7018908F04E0FEA3E0FF7C024B
:100E88007D58120646A3EE8FF01206AD807B909037
:100E9800E9E0FEA3E064034E7018908F04E0FEA31F
:100EA800E0FF7C007D3C120646A3EE8FF01206ADF3
:100EB80080579090E9E0FEA3E064024E7030908F76
:100EC80004E0FEA3E0D39405EE94004009908F045B
:100ED800E4F0A37405F0908F04E0FEA3E0FF7C002B
:100EE8007D0A120646A3EE8FF01206AD801B909085
:100EF800E9E0FEA3E064014E700F908F04E0FEA3CA
:100F0800E0FFA3EE8FF01206AD9090E9E0FEA3E0BB
:100F1800D39400EE94005003020FF29090E974FF0E
:100F2800F5F01206AD020FF29090E9E0FEA3E0C3DF
:100F38009404EE9400500A9090E9E475F0011206CA
:100F4800AD9090E9E0FEA3E064044E7009908F062E
:100F5800F0A3F0020FF29090E9E0FEA3E064034EE4
:100F68007026908F06E0FAA3E0FB908F06E0FEA3C0
:100F7800E0FF7C027D58120658C3EB9DFFEA9C9067
:100F88008F06F0A3EFF080629090E9E0FEA3E064A2
:100F9800024E7026908F06E0FAA3E0FB908F06E0E1
:100FA800FEA3E0FF7C007D3C120658C3EB9DFFEAE0
:100FB8009C908F06F0A3EFF080309090E9E0FEA3BC
:100FC800E064014E7024908F06E0FAA3E0FB908F56
:100FD80006E0FEA3E0FF7C007D0A120658C3EB9DE5
:100FE800FFEA9C908F06F0A3EFF0908F06E0FEA337
:100FF800E0FF9090E3EEF0A3EFF09090E3E0FCA325
:10100800E0FD7F027E00125B31229090E5E0FEA3B6
:10101800E0FF908F06EEF0A3EFF0908F04E0FEA3C0
:10102800E0C3940BEE94004003021103908F04E098
:10103800A3E0640A4E7006908F04F0A3F09090EB42
:10104800E0FEA3E064044E7018908F04E0FEA3E075
:10105800FF7C027D58120646A3EE8FF01206AD8083
:101068007B9090EBE0FEA3E064034E7018908F0431
:10107800E0FEA3E0FF7C007D3C120646A3EE8FF065
:101088001206AD80579090EBE0FEA3E064024E702C
:1010980030908F04E0FEA3E0D39405EE940040095D
:1010A800908F04E4F0A37405F0908F04E0FEA3E0B1
:1010B800FF7C007D0A120646A3EE8FF01206AD8073
:1010C8001B9090EBE0FEA3E064014E700F908F043C
:1010D800E0FEA3E0FFA3EE8FF01206AD9090EBE0E8
:1010E800FEA3E0D39400EE940050030211C5909043
:1010F800EB74FFF5F01206AD0211C59090EBE0FE1F
:10110800A3E0C39404EE9400500A9090EBE475F0C9
:10111800011206AD9090EBE0FEA3E064044E700966
:10112800908F06F0A3F00211C59090EBE0FEA3E0CB
:1011380064034E7026908F06E0FAA3E0FB908F06BA
:10114800E0FEA3E0FF7C027D58120658C3EB9DFF2A
:10115800EA9C908F06F0A3EFF080629090EBE0FE9F
:10116800A3E064024E7026908F06E0FAA3E0FB909D
:101178008F06E0FEA3E0FF7C007D3C120658C3EB1F
:101188009DFFEA9C908F06F0A3EFF080309090EBE3
:10119800E0FEA3E064014E7024908F06E0FAA3E01D
:1011A800FB908F06E0FEA3E0FF7C007D0A12065844
:1011B800C3EB9DFFEA9C908F06F0A3EFF0908F069B
:1011C800E0FEA3E0FF9090E5EEF0A3EFF09090E54D
:1011D800E0FCA3E0FD7F027E00125C0522908F0BED
:1011E800EEF0A3EFF0A3ECF0A3EDF07B017A907999
:1011F800A7908F1F120991909107E4F0A304F07A49
:10120800917907908F30E4F0A37402F07F5C7E2A16
:101218001250FD909107E0FEA3E0FF908F0BE0FCD9
:10122800A3E0D39FEC9E500A908F0BE0FEA3E04E04
:1012380070037F01227B017A8F790B908F30E4F065
:10124800A37402F07F5A7E2A1250FD908F0DE0FEA3
:10125800A3E064014E60030213727B017A8F791355
:10126800908F30F0A37402F0FF7E13125878908F9D
:1012780013E0FEA3E064014E7008908F13F0A3F012
:10128800805E908F13E0FEA3E064024E7009908F99
:1012980013F0A304F08049908F13E0FEA3E06404E8
:1012A8004E700A908F13F0A37402F08033908F135E
:1012B800E0FEA3E064084E700A908F13F0A3740355
:1012C800F0801D908F13E0FEA3E064104E700A902A
:1012D8008F13F0A37404F08007E4908F13F0A3F049
:1012E800908F0BE0FEA3E024FFFFEE34FFFE7C00AE
:1012F8007D05120646908F13E0FCA3E02FFFEE3C1D
:10130800908F13F0A3EFF0908F13E0FEA3E0C39447
:1013180003EE940040037F0122908F13E0FEA3E0C8
:10132800FF9090AFEEF0A3EFF07B017A9079AF9049
:101338008F29E4F0A37402F07F047E007D007C0016
:10134800125F2F908F1B120934000000007B017A76
:101358008F791B908F29E4F0A37402F07F747E01CB
:101368007D007C00125F2F7F0022908F0BE0FEA390
:10137800E0FF908F17EEF0A3EFF0908F0BE0A3E063
:10138800908F19EEF0A3EFF0908F17E0FEA3E02402
:10139800FFFFEE34FFFE7C007D05120646908F1796
:1013A800EEF0A3EFF0A3E0FEA3E0FF120646908F55
:1013B80019EEF0A3EFF0908F19E0FEA3E0FF9090F4
:1013C800AFE0FCA3E0C39FEC9E5051908F17E0FE66
:1013D800A3E0FF9090AFE0A3E0C39FEC9E403D9058
:1013E80090AFE0FEA3E0FF7C001206587E00740177
:1013F800A805088005C333CE33CED8F9FF908F11E6
:10140800EEF0A3EFF07B017A8F7911908F30E4F042
:10141800A37402F0FF7E131250FD801BE4908F111D
:10142800F0A3F07B017A8F7911908F30F0A37402CA
:10143800F0FF7E131250FD908F0BE0FEA3E0FF90AB
:101448008F0FEEF0A3EFF0908F0FE0FEA3E024FFE4
:10145800FFEE34FFFE7C007D05120646908F0FEEEE
:10146800F0A3EFF0E4908F15F0A3F0908F15E0FE55
:10147800A3E0C39405EE940040030217C5908F15AE
:10148800E0A3E025E0FFEE33FEE42FFFEE342AFE72
:101498007B017A8F790F908F30E4F0A37402F012F9
:1014A80050FD908F0FE0FEA3E0C39403EE9400403C
:1014B8000302164E908F0FE0A3E0FF7C007D2E12F2
:1014C800064674332FF974903EFA7B01908F15E02D
:1014D800FEA3E025E0FFEE33FEEF240AFFEE342AF8
:1014E800FE908F30E4F0A37402F01250FD908F0F3D
:1014F800E0FEA3E0FF7C007D2E12064674352FF92E
:1015080074903EFA7B01908F15E0FEA3E025E0FF82
:10151800EE33FEEF2414FFEE342AFE908F30E4F011
:10152800A37402F01250FD908F0FE0FEA3E0FF7C41
:10153800007D2E12064674432FF974903EFA7B0103
:10154800908F15E0FEA3E025E0FFEE33FEEF2428A0
:10155800FFEE342AFE908F30E4F0A37402F01250AC
:10156800FD908F0FE0FEA3E0FF7C007D2E12064663
:1015780074452FF974903EFA7B01908F15E0FEA315
:10158800E025E0FFEE33FEEF2432FFEE342AFE9032
:101598008F30E4F0A37402F01250FD908F0FE0FE3C
:1015A800A3E0FF7C007D2E12064674472FF9749045
:1015B8003EFA7B01908F15E0FEA3E025E0FFEE33B5
:1015C800FEEF243CFFEE342AFE908F30E4F0A37443
:1015D80002F01250FD908F0FE0FEA3E0FF7C007D2B
:1015E8002E12064674492FF974903EFA7B01908FAB
:1015F80015E0FEA3E025E0FFEE33FEEF2446FFEE04
:10160800342AFE908F30E4F0A37402F01250FD905B
:101618008F0FE0FEA3E0FF7C007D2E120646741FAC
:101628002FF974903EFA7B01908F15E0A3E0FEE459
:101638002400FFEE342BFE908F30E4F0A37414F0F6
:101648001250FD0217AEE4908F11F0A3F0908F15A1
:10165800E0FEA3E025E0FFEE33FEEF240AFFEE34C0
:101668002AFE7B017A8F7911908F30E4F0A37402FF
:10167800F01250FD908F15E0FEA3E025E0FFEE3359
:10168800FEEF2414FFEE342AFE7B017A8F79119045
:101698008F30E4F0A37402F01250FD908F15E0FE35
:1016A800A3E025E0FFEE33FEEF241EFFEE342AFE12
:1016B8007B017A8F7911908F30E4F0A37402F012D5
:1016C80050FD908F15E0FEA3E025E0FFEE33FEEF1E
:1016D8002428FFEE342AFE7B017A8F7911908F300F
:1016E800E4F0A37402F01250FD908F15E0FEA3E021
:1016F80025E0FFEE33FEEF2432FFEE342AFE7B01B5
:101708007A8F7911908F30E4F0A37402F01250FDB3
:10171800908F15E0FEA3E025E0FFEE33FEEF243CBA
:10172800FFEE342AFE7B017A8F7911908F30E4F036
:10173800A37402F01250FD908F15E0FEA3E025E09F
:10174800FFEE33FEEF2446FFEE342AFE7B017A8F4C
:101758007911908F30E4F0A37402F01250FD908F4D
:1017680015E0FEA3E025E0FFEE33FEEF2450FFEE88
:10177800342AFE7B017A8F7911908F30E4F0A374BC
:1017880002F01250FD908F15E0A3E0FEE42400FF64
:10179800EE342BFE7BFF7A74791A908F30E4F0A335
:1017A8007402F01250FD908F0FE475F0011206AD2F
:1017B800908F15E475F0011206AD0214737F0022B4
:1017C800908F07EEF0A3EFF07B017A9079A7908FC6
:1017D8000B1209919090C1E0FEA3E064014E6003F2
:1017E8000218A19090AFE0FEA3E090903575F02E1E
:1017F800120965EE75F02EA42583F583E0FEA3E0BB
:10180800FF9090E1E0FCA3E0D39FEC9E40289090ED
:10181800AFE0FEA3E090903575F02E120965EE75E5
:10182800F02EA42583F583E0FEA3E0FF9090E1EE7F
:10183800F0A3EFF080519090AFE0FEA3E0909033DA
:1018480075F02E120965EE75F02EA42583F583E058
:10185800FEA3E0FF9090E1E0FCA3E0C39FEC9E5064
:10186800269090AFE0FEA3E090903375F02E120919
:1018780065EE75F02EA42583F583E0FEA3E0FF90C6
:1018880090E1EEF0A3EFF09090E1E0FCA3E0FD7FA3
:10189800027E00126B25021AED9090C1E0FEA3E0D3
:1018A80064044E60030219669090AFE0FEA3E090D6
:1018B800903975F02E120965EE75F02EA42583F582
:1018C80083E0FEA3E0FF9090E7E0FCA3E0D39FEC69
:1018D8009E40289090AFE0FEA3E090903975F02EDE
:1018E800120965EE75F02EA42583F583E0FEA3E0CA
:1018F800FF9090E7EEF0A3EFF080519090AFE0FEFC
:10190800A3E090903775F02E120965EE75F02EA4BD
:101918002583F583E0FEA3E0FF9090E7E0FCA3E0D9
:10192800C39FEC9E50269090AFE0FEA3E0909037C6
:1019380075F02E120965EE75F02EA42583F583E067
:10194800FEA3E0FF9090E7EEF0A3EFF09090E7E0C1
:10195800FCA3E0FD7F027E00125DA8021AED9090C4
:10196800C1E0FEA3E064024E6003021A2B9090AF20
:10197800E0FEA3E090903D75F02E120965EE75F03B
:101988002EA42583F583E0FEA3E0FF9090E3E0FC1E
:10199800A3E0D39FEC9E40289090AFE0FEA3E09098
:1019A800903D75F02E120965EE75F02EA42583F58D
:1019B80083E0FEA3E0FF9090E3EEF0A3EFF0805108
:1019C8009090AFE0FEA3E090903B75F02E12096571
:1019D800EE75F02EA42583F583E0FEA3E0FF90903A
:1019E800E3E0FCA3E0C39FEC9E50269090AFE0FE9E
:1019F800A3E090903B75F02E120965EE75F02EA4C9
:101A08002583F583E0FEA3E0FF9090E3EEF0A3EFDB
:101A1800F09090E3E0FCA3E0FD7F027E00125B31D2
:101A2800021AED9090C1E0FEA3E064034E60030249
:101A38001AED9090AFE0FEA3E090904175F02E1261
:101A48000965EE75F02EA42583F583E0FEA3E0FF7B
:101A58009090E5E0FCA3E0D39FEC9E40289090AFE7
:101A6800E0FEA3E090904175F02E120965EE75F046
:101A78002EA42583F583E0FEA3E0FF9090E5EEF029
:101A8800A3EFF080519090AFE0FEA3E090903F75F7
:101A9800F02E120965EE75F02EA42583F583E0FE7D
:101AA800A3E0FF9090E5E0FCA3E0C39FEC9E5026E6
:101AB8009090AFE0FEA3E090903F75F02E1209657C
:101AC800EE75F02EA42583F583E0FEA3E0FF909049
:101AD800E5EEF0A3EFF09090E5E0FCA3E0FD7F02D7
:101AE8007E00125C05908F07E0FEA3E08EF0120ADC
:101AF800491B2100011B5200021BA200031BF2001C
:101B0800041C2204001CDE08001C6210001D2414A2
:101B1800001D541C0000001D5B90910FE4F0A3040D
:101B2800F0E4A3F0A3F0A3F0A3F0A3F0A3F0908F48
:101B380007E0FEA3E0FF1236E6908F07E0FEA3E081
:101B4800FF9090C1EEF0A3EFF022E490910FF0A384
:101B5800F0A3F0A304F0E4A3F0A3F0A3F0A3F090A3
:101B68008F07E0FEA3E0FF1236E6908F07E0FEA3A2
:101B7800E0FF9090C1EEF0A3EFF09090E9E4F0A3BD
:101B88007404F0E49090E3F0A3F09090E3E0FCA3F9
:101B9800E0FD7F027E00125B3122E490910FF0A3FA
:101BA800F0A3F0A3F0A3F0A304F0E4A3F0A3F09053
:101BB8008F07E0FEA3E0FF1236E6908F07E0FEA352
:101BC800E0FF9090C1EEF0A3EFF09090EBE4F0A36B
:101BD8007404F0E49090E5F0A3F09090E5E0FCA3A5
:101BE800E0FD7F027E00125C0522E490910FF0A3D5
:101BF800F0A3F0A3F0A3F0A3F0A3F0A304F0908F58
:101C080007E0FEA3E0FF1236E6908F07E0FEA3E0B0
:101C1800FF9090C1EEF0A3EFF0229090FFE0FEA3BA
:101C2800E04E701A7B017A9079D978E17C907D0139
:101C3800FE7F081205A67F0B7E0012479F22E490C4
:101C48008F09F0A3F07B017A8F7909908F30F0A388
:101C580004F07F107E111250FD22E490910FF0A342
:101C6800F0A3F0A3F0A3F0A3F0A3F0A3F07B017A14
:101C780091790F908F30F0A37404F07F057E2512C0
:101C880050FD7B017A91790F908F30E4F0A37404B2
:101C9800F07F097E251250FDE4908F09F0A3F07BB8
:101CA800017A8F7909908F30F0A304F07F107E11AC
:101CB8001250FD7B017A8F7909908F30E4F0A304EC
:101CC800F07F127E111250FDE49090C1F0A3F07FD6
:101CD80009FE12479F22E490910FF0A3F0A3F0A30E
:101CE800F0A3F0A3F0A3F0A3F07B017A91790F9011
:101CF8008F30F0A37404F07F057E251250FD7B0120
:101D08007A91790F908F30E4F0A37404F07F097E04
:101D1800251250FD7F0C7E0012479F227B017A908E
:101D280079E178D97C907D017E007F081205A67B39
:101D3800017A9079D9908F13E4F0A37404F0E4FF4A
:101D4800FE12634F7F0B7E0012479F227F0B7E009F
:101D580012479F22908F07EEF0A3EFF07B017A9055
:101D680079A7908F0B1209919090BFE0FEA3E064D1
:101D7800014E600A9090BDE0FEA3E04E6031E49011
:101D88008F09F0A3F07B017A8F7909908F30F0A347
:101D980004F07F107E111250FD7B017A8F79099033
:101DA8008F30E4F0A304F07F127E111250FD2290D0
:101DB80090C1E0FEA3E064014E6003021E7C909097
:101DC800AFE0FEA3E090903575F02E120965EE7530
:101DD800F02EA42583F583E0FEA3E0FF9090E1E0D8
:101DE800FCA3E0D39FEC9E40289090AFE0FEA3E0D8
:101DF80090903575F02E120965EE75F02EA42583A6
:101E0800F583E0FEA3E0FF9090E1EEF0A3EFF08011
:101E1800519090AFE0FEA3E090903375F02E120938
:101E280065EE75F02EA42583F583E0FEA3E0FF9010
:101E380090E1E0FCA3E0C39FEC9E50269090AFE0B9
:101E4800FEA3E090903375F02E120965EE75F02E22
:101E5800A42583F583E0FEA3E0FF9090E1EEF0A3D4
:101E6800EFF09090E1E0FCA3E0FD7F027E00126BB2
:101E7800250220C89090C1E0FEA3E064044E6003F0
:101E8800021F419090AFE0FEA3E090903975F02ECC
:101E9800120965EE75F02EA42583F583E0FEA3E014
:101EA800FF9090E7E0FCA3E0D39FEC9E4028909041
:101EB800AFE0FEA3E090903975F02E120965EE753B
:101EC800F02EA42583F583E0FEA3E0FF9090E7EED3
:101ED800F0A3EFF080519090AFE0FEA3E090903730
:101EE80075F02E120965EE75F02EA42583F583E0B2
:101EF800FEA3E0FF9090E7E0FCA3E0C39FEC9E50B8
:101F0800269090AFE0FEA3E090903775F02E12096E
:101F180065EE75F02EA42583F583E0FEA3E0FF901F
:101F280090E7EEF0A3EFF09090E7E0FCA3E0FD7FF0
:101F3800027E00125DA80220C89090C1E0FEA3E0D6
:101F480064024E60030220069090AFE0FEA3E0908A
:101F5800903D75F02E120965EE75F02EA42583F5D7
:101F680083E0FEA3E0FF9090E3E0FCA3E0D39FECC6
:101F78009E40289090AFE0FEA3E090903D75F02E33
:101F8800120965EE75F02EA42583F583E0FEA3E023
:101F9800FF9090E3EEF0A3EFF080519090AFE0FE59
:101FA800A3E090903B75F02E120965EE75F02EA413
:101FB8002583F583E0FEA3E0FF9090E3E0FCA3E037
:101FC800C39FEC9E50269090AFE0FEA3E090903B1C
:101FD80075F02E120965EE75F02EA42583F583E0C1
:101FE800FEA3E0FF9090E3EEF0A3EFF09090E3E023
:101FF800FCA3E0FD7F027E00125B310220C89090B6
:10200800C1E0FEA3E064034E60030220C89090AFD5
:10201800E0FEA3E090904175F02E120965EE75F090
:102028002EA42583F583E0FEA3E0FF9090E5E0FC75
:10203800A3E0D39FEC9E40289090AFE0FEA3E090F1
:10204800904175F02E120965EE75F02EA42583F5E2
:1020580083E0FEA3E0FF9090E5EEF0A3EFF080515F
:102068009090AFE0FEA3E090903F75F02E120965C6
:10207800EE75F02EA42583F583E0FEA3E0FF909093
:10208800E5E0FCA3E0C39FEC9E50269090AFE0FEF5
:10209800A3E090903F75F02E120965EE75F02EA41E
:1020A8002583F583E0FEA3E0FF9090E5EEF0A3EF33
:1020B800F09090E5E0FCA3E0FD7F027E00125C0555
:1020C800908F07E0FEA3E08EF0120A4920F004008A
:1020D80021A4080022220C002147100021EA140044
:1020E800221A1C00000022C69090B1E0FEA3E04E28
:1020F80070079090B1F0A304F07B017A9079B190C9
:102108008F30E4F0A37402F07F477E201250FD7BED
:10211800017A9079D978E17C907D017E007F081260
:1021280005A67B017A9079ED908F13E4F0A37404EF
:10213800F0E4FFFE1226FA7F0D7E0012479F22E48C
:1021480090910FF0A3F0A3F0A3F0A3F0A3F0A3F0F5
:10215800A3F07B017A91790F908F30F0A37404F08B
:102168007F057E251250FD7B017A91790F908F3083
:10217800E4F0A37404F07F097E251250FDE49090EA
:10218800C1F0A3F09090FFE0FEA3E04E700690909F
:10219800B1F0A3F07F097E0012479F22E490910FCF
:1021A800F0A3F0A3F0A3F0A3F0A3F0A3F0A3F07BB7
:1021B800017A91790F908F30F0A37404F07F057E37
:1021C800251250FD7B017A91790F908F30E4F0A3AE
:1021D8007404F07F097E251250FD7F0E7E001247A1
:1021E8009F227B017A9079E178ED7C907D017E00D9
:1021F8007F081205A67B017A9079ED908F13E4F0A1
:10220800A37404F0E4FFFE12634F7F0D7E001247B3
:102218009F227F0D7E0012479F229090FFE4F0A33B
:1022280004F09090FFE0FEA3E0FF1266187B017AAD
:102238009079B1908F29E4F0A37402F07F057E00B5
:102248007D007C00125F2F7B017A9079B1908F30EE
:10225800E4F0A304F07F0A7E201250FD7B017A90FF
:1022680079ED78E17C907D017E007F081205A67BE0
:10227800017A9079ED78D97C907D017E007F0812F3
:1022880005A69090E1E0FCA3E0FD7F027E00126BC2
:10229800259090E7E0FCA3E0FD7F027E00125DA898
:1022A8009090E3E0FCA3E0FD7F027E00125B31909A
:1022B80090E5E0FCA3E0FD7F027E00125C05229021
:1022C8008F04EEF0A3EFF09090C3E0FEA3E08EF051
:1022D800120A4922EF000B23F2000C24F5000D2509
:1022E800F9000E000026F99090D7E0FEA3E0FF90D9
:1022F8008F06EEF0A3EFF0908F04E0FEA3E0C39406
:102308000BEE9400504E908F04E0A3E0640A4E70E8
:1023180006908F04F0A3F0908F06E0FEA3E0FF7C08
:10232800037DE8120658908F06ECF0A3EDF0908F2D
:1023380006E0FEA3E0FF7C007D0A120646908F06A9
:10234800EEF0A3EFF0908F04E0FEA3E0FFA3EE8F82
:10235800F01206AD908F04E0FEA3E0640B4E7015FA
:10236800A3E0FEA3E0FF7C007D0A120658908F06CA
:10237800EEF0A3EFF0908F06E0FEA3E0FF9090D779
:10238800EEF0A3EFF07B017A8F7906908F30E4F0BE
:10239800A304F07F617E201250FD908F04E0FEA31D
:1023A800E0640C4E60030226F9A3E0FEA3E0FF9070
:1023B80090D7EEF0A3EFF09090D7E0FEA3E0FF9067
:1023C80090CDEEF0A3EFF0E49090C3F0A3F07B0182
:1023D8007A8F7906908F30F0A304F07F807E2012E8
:1023E80050FD7F027E0012479F229090D7E0FEA307
:1023F800E0FF908F06EEF0A3EFF0908F04E0FEA3CD
:10240800E0C3940BEE9400504E908F04E0A3E06478
:102418000A4E7006908F04F0A3F0908F06E0FEA39A
:10242800E0FF7C037DE8120658908F06ECF0A3EDE0
:10243800F0908F06E0FEA3E0FF7C007D0A120646BE
:10244800908F06EEF0A3EFF0908F04E0FEA3E0FF7C
:10245800A3EE8FF01206AD908F04E0FEA3E0640BAC
:102468004E7015A3E0FEA3E0FF7C007D0A1206581B
:10247800908F06EEF0A3EFF0908F06E0FEA3E0FF4A
:102488009090D7EEF0A3EFF07B017A8F7906908FCA
:1024980030E4F0A304F07F617E201250FD908F0499
:1024A800E0FEA3E0640C4E60030226F9A3E0FEA35D
:1024B800E0FF9090D7EEF0A3EFF09090D7E0FEA366
:1024C800E0FF9090CFEEF0A3EFF0E49090C3F0A37C
:1024D800F07B017A8F7906908F30F0A304F07F812A
:1024E8007E201250FD7F027E0012479F229090D7D7
:1024F800E0FEA3E0FF908F06EEF0A3EFF0908F04CC
:10250800E0FEA3E0C3940BEE9400504E908F04E0DD
:10251800A3E0640A4E7006908F04F0A3F0908F0633
:10252800E0FEA3E0FF7C037DE8120658908F06ECDE
:10253800F0A3EDF0908F06E0FEA3E0FF7C007D0A9B
:10254800120646908F06EEF0A3EFF0908F04E0FE9F
:10255800A3E0FFA3EE8FF01206AD908F04E0FEA378
:10256800E0640B4E7015A3E0FEA3E0FF7C007D0A3B
:10257800120658908F06EEF0A3EFF0908F06E0FE5B
:10258800A3E0FF9090D7EEF0A3EFF07B017A8F796C
:1025980006908F30E4F0A37402F07F617E20125021
:1025A800FD908F04E0FEA3E0640C4E60030226F960
:1025B800A3E0FEA3E0FF9090D7EEF0A3EFF0909099
:1025C800D7E0FEA3E0FF9090D1EEF0A3EFF0E49007
:1025D80090C3F0A3F07B017A8F7906908F30F0A337
:1025E80004F07F827E201250FD7F027E0012479FFA
:1025F800229090D7E0FEA3E0FF908F06EEF0A3EFC5
:10260800F0908F04E0FEA3E0C3940BEE9400504ECC
:10261800908F04E0A3E0640A4E7006908F04F0A344
:10262800F0908F06E0FEA3E0FF7C277D101206588D
:10263800908F06ECF0A3EDF0908F06E0FEA3E0FF8C
:102648007C007D0A120646908F06EEF0A3EFF0900C
:102658008F04E0FEA3E0FFA3EE8FF01206AD908F8B
:1026680004E0FEA3E0640B4E7015A3E0FEA3E0FFB8
:102678007C007D0A120658908F06EEF0A3EFF090CA
:102688008F06E0FEA3E0FF9090D7EEF0A3EFF07B7B
:10269800017A8F7906908F30E4F0A37402F07F619D
:1026A8007E201250FD908F04E0FEA3E0640C4E7073
:1026B80040A3E0FEA3E0FF9090D7EEF0A3EFF090E8
:1026C80090D7E0FEA3E0FF9090D3EEF0A3EFF0E404
:1026D8009090C3F0A3F07B017A8F7906908F30F049
:1026E800A304F07F837E201250FD7F027E001247F4
:1026F8009F22908F0EEEF0A3EFF0A31209917B01B9
:102708007A9079A7908F191209919090B1E0FEA361
:10271800E0D39400EE9400402E9090B1E0A3E0C482
:10272800F8540FC868FFEEC454F048FEEF2410FFB9
:10273800E43EFE908F0EE0FCA3E02FFFEE3C908F6E
:1027480015F0A3EFF08013908F0EE0FEA3E02410A5
:10275800FFE43E908F15F0A3EFF0908F15E0FEA3F5
:10276800E0FFE4FCFDC006C007908F1012097190CD
:102778008F13E0FEA3E0FF908F23EEF0A3EFF0D0DD
:1027880007D006125FE7E4908F17F0A3F0908F133D
:10279800E0FEA3E0FF908F17E0FCA3E0C39FEC9E50
:1027A8004003022A8E908F17E0FEA3E0FF908F0E61
:1027B800E0FCA3E02FFFEC3E908F15F0A3EFF09024
:1027C8008F15E0FEA3E08EF0120A4927E7000028E3
:1027D8008F00012937000229DF000300002A8190B9
:1027E80090AFE0FEA3E090903575F02E120965EEEB
:1027F80075F02EA42583F583E0FEA3E0FF9090ED0D
:10280800E0FCA3E0D39FEC9E40269090AFE0FEA3AF
:10281800E090903375F02E120965EE75F02EA42520
:1028280083F583E0FEA3E0FF9090EDEEF0A3EFF0D8
:102838009090AFE0FEA3E090903375F02E120965FA
:10284800EE75F02EA42583F583E0FEA3E0FF9090BB
:10285800EDE0FCA3E0C39FEC9E4003022A81909028
:10286800AFE0FEA3E090903375F02E120965EE7587
:10287800F02EA42583F583E0FEA3E0FF9090EDEE13
:10288800F0A3EFF0022A819090AFE0FEA3E09090D1
:102898003975F02E120965EE75F02EA42583F5839F
:1028A800E0FEA3E0FF9090F3E0FCA3E0D39FEC9E52
:1028B80040269090AFE0FEA3E090903775F02E127E
:1028C8000965EE75F02EA42583F583E0FEA3E0FFED
:1028D8009090F3EEF0A3EFF09090AFE0FEA3E090BD
:1028E800903775F02E120965EE75F02EA42583F544
:1028F80083E0FEA3E0FF9090F3E0FCA3E0C39FEC2D
:102908009E4003022A819090AFE0FEA3E0909037AA
:1029180075F02E120965EE75F02EA42583F583E077
:10292800FEA3E0FF9090F3EEF0A3EFF0022A81906F
:1029380090AFE0FEA3E090903D75F02E120965EE91
:1029480075F02EA42583F583E0FEA3E0FF9090EFB9
:10295800E0FCA3E0D39FEC9E40269090AFE0FEA35E
:10296800E090903B75F02E120965EE75F02EA425C7
:1029780083F583E0FEA3E0FF9090EFEEF0A3EFF085
:102988009090AFE0FEA3E090903B75F02E120965A1
:10299800EE75F02EA42583F583E0FEA3E0FF90906A
:1029A800EFE0FCA3E0C39FEC9E4003022A819090D5
:1029B800AFE0FEA3E090903B75F02E120965EE752E
:1029C800F02EA42583F583E0FEA3E0FF9090EFEEC0
:1029D800F0A3EFF0022A819090AFE0FEA3E0909080
:1029E8004175F02E120965EE75F02EA42583F58346
:1029F800E0FEA3E0FF9090F1E0FCA3E0D39FEC9E03
:102A080040269090AFE0FEA3E090903F75F02E1224
:102A18000965EE75F02EA42583F583E0FEA3E0FF9B
:102A28009090F1EEF0A3EFF09090AFE0FEA3E0906D
:102A3800903F75F02E120965EE75F02EA42583F5EA
:102A480083E0FEA3E0FF9090F1E0FCA3E0C39FECDD
:102A58009E50269090AFE0FEA3E090903F75F02E38
:102A6800120965EE75F02EA42583F583E0FEA3E038
:102A7800FF9090F1EEF0A3EFF0908F17E475F0015E
:102A88001206AD02279522908F04EEF0A3EFF07B9B
:102A9800017A9079A7908F08120991E49090C3F079
:102AA800A3F0908F04E0FEA3E08EF0120A492AE614
:102AB80000012B1000022B3A00032B9800042C3F36
:102AC80000052C4900062CA400082D4F000B2D4FA3
:102AD800000C2D4F000D2D4F000E00002D71909110
:102AE80005E0FEA3E0D39401EE9400400A9091051E
:102AF80074FFF5F01206AD909105E0FEA3E0FFE447
:102B0800FDFC1211E5022D71909105E0FEA3E0C3D2
:102B18009401EE9400500A909105E475F0011206B4
:102B2800AD909105E0FEA3E0FFE4FDFC1211E50283
:102B38002D717B017A9079CD908F30E4F0A304F069
:102B48007F807E201250FD7B017A9079CF908F3064
:102B5800E4F0A304F07F817E201250FD7B017A907F
:102B680079D1908F30E4F0A304F07F827E20125058
:102B7800FD7B017A9079D3908F30E4F0A304F07F45
:102B8800837E201250FD7F027E0012479F022D7126
:102B9800909105E0FEA3E0FF7D017C001211E59015
:102BA8008F06E4F0A3EFF0908F06E0FEA3E04E60FE
:102BB80003022D717F02FE12479F9090AFE0FEA3A3
:102BC800E0FF7C007D2E12064674432FF974903E78
:102BD800FA7B0178CD7C907D017E007F041205A6EA
:102BE8007B017A9079CD908F30E4F0A304F07F8058
:102BF8007E201250FD7B017A9079CF908F30E4F0DF
:102C0800A304F07F817E201250FD7B017A9079D158
:102C1800908F30E4F0A304F07F827E201250FD7B79
:102C2800017A9079D3908F30E4F0A304F07F837E0B
:102C3800201250FD022D717F077E0012479F022D42
:102C4800717F077E0012479F74FF9090D5F0A3F024
:102C58007B017A9079CD908F29E4F0A37406F07FF8
:102C6800707E017D007C00125F2F7B017A9079CD08
:102C7800C0019090AFE0FEA3E0FF7C007D2E12061D
:102C88004674432FF974903EA801FC7D01D0017E63
:102C9800007F041205A612521A022D719090A7E027
:102CA800FEA3E0FFC374049FFFE49E9090A7F0A3E7
:102CB800EFF09090A7E0FEA3E0D39400EE940040DC
:102CC800099090A7E4F0A37404F07B017A9079A7A7
:102CD800908F30E4F0A304F07F007E211250FD7B3A
:102CE800017A9079A7908F29E4F0A37402F07F000D
:102CF8007E007D007C00125F2F9090A7E0FEA3E08D
:102D080064044E70177BFF7A747928908F30F0A393
:102D1800740BF07F007E301250FD804D9090AFE034
:102D2800FEA3E0FF7C007D2E120646741F2FF97467
:102D3800903EFA7B01908F30E4F0A37414F07F008A
:102D48007E301250FD8022E49090D7F0A3F07B01F2
:102D58007A9079D7908F30F0A304F07F617E2012AB
:102D680050FD7F037E0012479F908F04E0FEA3E092
:102D7800FF9090C3EEF0A3EFF022908EF912099124
:102D8800908EF91209711206D9FFAEF0908EF912E1
:102D98000971E92402F9E43AFA908F30E4F0A304C7
:102DA800F0125878908EF91209719000081205E512
:102DB800120A232DC8002E3D012EE6020000301015
:102DC800908EF912097190000212070445F0700301
:102DD800023010908EF91209711206D9FFAEF090E8
:102DE8008EF9120971900002120704FDACF0908E62
:102DF800F912097190000912099A89828A83120AC4
:102E08007A908EF9120971900002E4F5F01207A881
:102E1800908EF91209711206D9FFAEF0908EF91250
:102E28000971E92402F9E43AFA908F30E4F0A30436
:102E3800F01250FD22908EF91209719000041207C9
:102E480004FFAEF0908EF912097190000212070487
:102E58006F7003E5F06E7003023010908EF912095E
:102E6800711206D9FFAEF0908EF912097190000226
:102E7800120704FDACF0908EF91209719000091246
:102E8800099A89828A83120A7A908EF912097190B6
:102E98000002120704FF908EF9120971900004E5F0
:102EA800F08FF01207A8908EFCE4F0A304F0FB7AF0
:102EB8008E79FC908F30E4F0A304F07F507E1112DD
:102EC80050FDE4908EFCF0A3F07B017A8E79FC90A3
:102ED8008F30F0A304F07F527E111250FD22908EA5
:102EE800F912097190000212070445F07003022FCD
:102EF800E4908EF9120971900006120704C3940A2F
:102F0800E5F094005051908EF91209719000041266
:102F18000704FFAEF0908EF91209719000021207B3
:102F2800046F7003E5F06E602E908EF9120971122D
:102F380006D9FFAEF0908EF91209719000021207BF
:102F480004FDACF0908EF912097190000912099AEB
:102F580089828A83120A7A908EF912097190000682
:102F6800120704641445F07061908EF91209711209
:102F780006D9FFAEF0908EF912097190000212077F
:102F880004FDACF0908EF912097190000C12099AA8
:102F980089828A83120A7A908EF912097190000246
:102FA800E4F5F01207A8908EF91209711206D9FFFC
:102FB800AEF0908EF9120971E92402F9E43AFA9018
:102FC8008F30E4F0A304F01250FD908EF9120971CD
:102FD800900006E475F00112073C800F908EF912FC
:102FE8000971900006E4F5F01207A8908EF912090D
:102FF80071900002120704FF908EF9120971900077
:1030080004E5F08FF01207A822908FF9EFF0A312D1
:103018000991E4781DF608F690896AE0120A2330CF
:103028004000307B01311A02314803317C04319D64
:1030380005324F060000326F908FF9E0B4031DFF90
:1030480090896BE0FE04F0746A2EF582E43488F50A
:1030580083EFF090896AE004F0023283E490896A91
:10306800F0A3F07E01FFFD7B017A88796A120AA934
:10307800023283908FF9E0120A2330920330B306AC
:1030880030DF1030DF8300003100908FF9E0FF90CF
:10309800896BE0FE04F0746A2EF582E43488F583C7
:1030A800EFF090896AE004F0023283908FF9E0FF34
:1030B80090896BE0FE04F0746A2EF582E43488F59A
:1030C80083EFF090896D7404F0E490896CF0908936
:1030D8006A7403F0023283908FF9E0FF90896BE005
:1030E800FE04F0746A2EF582E43488F583EFF090DC
:1030F800896A7406F0023283E490896AF0A3F07E4C
:1031080001FFFD7B017A88796A120AA902328302DB
:103118003283908FF9E0FF90896BE0FE04F0746AC7
:103128002EF582E43488F583EFF0908FF9E09089EA
:103138006DF0E490896CF090896AE004F0023283C3
:10314800908FF9E0FF90896BE0FE04F0746A2EF529
:1031580082E43488F583EFF090896CE004F0A3E012
:10316800FF90896CE06F600302328390896AE00403
:10317800F0023283908FF9E0FF90896BE0FE04F053
:10318800746A2EF582E43488F583EFF090896AE05A
:1031980004F0023283908FF9E0FF90896BE0FE041F
:1031A800F0746A2EF582E43488F583EFF090896B29
:1031B800E02469F582E43488F583E0FE90896BE0C9
:1031C8002468F582E43488F583E07C002400FFEC71
:1031D8003E781DF608A6077B017A88796A90896B84
:1031E800E024FEFD126FB2781DE6FC08E66F70025F
:1031F800EE6C703D7B017A88796AC003C002C00119
:1032080090896BE024FEFD908FFA12097189828AF9
:1032180083D001D002D003120A7AE490896AF0A31D
:10322800F07E01FFFD7B017A88796A120AA97F0185
:1032380022E490896AF0A3F07E01FFFD7B017A8881
:10324800796A120AA98034908FF9E0FF90896BE0BF
:10325800FE04F0746A2EF582E43488F583EFF0906A
:10326800896A7404F08014E490896AF0A3F07E01FE
:10327800FFFD7B017A88796A120AA97F0022908F64
:1032880004EEF0A3EFF0909103E0FEA3E0FF908F2F
:1032980006EEF0A3EFF0908F04E0FEA3E0640C4E7E
:1032A80060030233449090B3F0A3F0A3F0A3F07B43
:1032B800017A9079B3908F29F0A37402F07F067E8B
:1032C800007D007C00125F2F9090B3E0FEA3E0FF2A
:1032D800E4FCFD9090B71209289090B71209107875
:1032E800101208FD9090B71209289090B712091C87
:1032F8009090B5E0FEA3E0FFE4FCFD1208BEA31227
:103308000928E47B107A0EF9F89090B71209101288
:10331800082C9090BBEEF0A3EFF07B017A9079BB7C
:10332800908F30E4F0A304F07F627E201250FDE419
:10333800909103F0A3F07F07FE12479F908F04E05F
:10334800FEA3E0640D4E70067F07FE12479F908F24
:1033580004E0FEA3E0C3940BEE9400400302340D96
:10336800908F04E0A3E0640A4E7006908F04F0A3E7
:10337800F0908F06E0FEA3E0FF7C037DE81206587C
:10338800908F06ECF0A3EDF0908F06E0FEA3E0FF2F
:103398007C007D0A120646908F06EEF0A3EFF090AF
:1033A8008F04E0FEA3E0FFA3EE8FF01206AD908F2E
:1033B80006E0FEA3E0D3940FEE9427400C908F060E
:1033C8007427F0A3740FF08014908F06E0FEA3E03A
:1033D800C3EE94005007E4908F06F0A3F0908F0698
:1033E800E0FEA3E0FF909103EEF0A3EFF07B017AFB
:1033F800917903908F30E4F0A37402F07F607E200F
:103408001250FD8051908F06E0FEA3E0FF7C007D06
:103418000A120658908F06EEF0A3EFF0908F06E0A0
:10342800FEA3E0C3EE94005007E4908F06F0A3F0EB
:10343800908F06E0FEA3E0FF909103EEF0A3EFF07B
:103448007B017A917903908F30E4F0A37402F07FC6
:10345800607E201250FD908F06E0FEA3E0B4F228B3
:10346800EEB40324E4909103F0A3F07B017A917900
:1034780003908F30F0A37402F07F607E201250FD1D
:103488007F087E0012479F22908F06E0FEA3E0B4DB
:10349800553DEEB41739909105E4F0A304F09091EE
:1034A80005E0FEA3E0FFE4FDFC1211E57F017E00CC
:1034B80012479FE4909103F0A3F07B017A9179037E
:1034C800908F30F0A37402F07F607E201250FD22AE
:1034D800908EF8EEF0A3EFF0A3ECF0A3EDF0A312BA
:1034E8000991E4908EFFF0908F01F0A3F0A3F0A370
:1034F800F0A3F07BFF7A73796A78067C8F7D01FEF2
:103508007F801205A6908EF8E0FEA3E02400FFEE6F
:103518003410908F04F0A3EFF090881EE0FF908E97
:10352800FFE0FE04F074062EF582E4348FF583EF95
:10353800F0908EFAE0FEA3E064014E704D908EFF8D
:10354800E0FF04F074062FF582E4348FF5837406E7
:10355800F0908F04E0FEA3E0EEFF908EFFE0FE0403
:10356800F074062EF582E4348FF583EFF0908F0423
:10357800E0A3E0FF908EFFE0FE04F074062EF582D3
:10358800E4348FF583EFF0023612908EFFE0FF04EB
:10359800F074062FF582E4348FF5837410F0908F61
:1035A80004E0FEA3E0EEFF908EFFE0FE04F0740658
:1035B8002EF582E4348FF583EFF0908F04E0A3E0DA
:1035C800FF908EFFE0FE04F074062EF582E4348F3F
:1035D800F583EFF0908EFAE0FEA3E0EEFF908EFF09
:1035E800E0FE04F074062EF582E4348FF583EFF0E4
:1035F800908EFAE0A3E0FF908EFFE0FE04F07406E0
:103608002EF582E4348FF583EFF0E4908F00F0908C
:103618008F00E0FF908EFAE0FCA3E0FDC3EF9DE48D
:103628009C505CA3120971908F00E075F002A4F51C
:103638008285F083120704E5F0FF908EFFE0FE0418
:10364800F074062EF582E4348FF583EFF0908EFC4B
:10365800120971908F00E075F002A4F58285F0835D
:10366800120704FF908EFFE0FE04F074062EF58228
:10367800E4348FF583EFF0908F00E004F080907BC6
:10368800017A8F7906908EFFE0FD7C0012596990CF
:103698008F02EEF0A3EFF0908F02E0A3E0FF908E90
:1036A800FFE0FE04F074062EF582E4348FF583EF14
:1036B800F0908F02E0FEA3E0EEFF908EFFE0FE04A4
:1036C800F074062EF582E4348FF583EFF07B017AEF
:1036D8008F7906908EFFE0FD7C00126E2A22908F73
:1036E8000EEEF0A3EFF07B017A91790F908F30E422
:1036F800F0A37404F07F057E251250FD9090A9E098
:10370800FEA3E04E6003023798908F0EE0FEA3E020
:1037180064014E701090910FE0FEA3E0FF90910FAE
:10372800EEF0A3EFF0908F0EE0FEA3E064024E707F
:1037380010909111E0FEA3E0FF909111EEF0A3EF3D
:10374800F0908F0EE0FEA3E064034E70109091138A
:10375800E0FEA3E0FF909113EEF0A3EFF0908F0E40
:10376800E0FEA3E064044E7010909115E0FEA3E023
:10377800FF909115EEF0A3EFF07B017A91790F900D
:103788008F30E4F0A37404F07F097E251250FD22E7
:103798009090A9E0FEA3E064014E706B908F0EE05C
:1037A800FEA3E064014E700990910F75F0011206B6
:1037B800AD908F0EE0FEA3E064024E700990911167
:1037C80075F0011206AD908F0EE0FEA3E064034E83
:1037D800700990911375F0011206AD908F0EE0FEFE
:1037E800A3E064044E700990911575F0011206ADBE
:1037F8007B017A91790F908F30E4F0A37404F07F05
:10380800097E251250FD229090A9E0FEA3E06402F3
:103818004E706B908F0EE0FEA3E064014E7009902D
:10382800910F75F0021206AD908F0EE0FEA3E064D2
:10383800024E700990911175F0021206AD908F0E2C
:10384800E0FEA3E064034E700990911375F0021234
:1038580006AD908F0EE0FEA3E064044E70099091CF
:103868001575F0021206AD7B017A91790F908F30B1
:10387800E4F0A37404F07F097E251250FD22908F96
:103888000EE0FEA3E064014E700990910F75F003FD
:103898001206AD908F0EE0FEA3E064024E70099010
:1038A800911175F0031206AD908F0EE0FEA3E0644F
:1038B800034E700990911375F0031206AD908F0EA8
:1038C800E0FEA3E064044E700990911575F00312B0
:1038D80006AD7B017A91790F908F30E4F0A37404E0
:1038E800F07F097E251250FD22909109E0FEA3E0A9
:1038F8008EF0120A49391900003922000139650091
:10390800023978000339E700063A24000800003A33
:10391800D6909109E4F0A304F0227B017A9079DB38
:1039280078F57C907D017E007F061205A69090BDFB
:10393800E0FEA3E064014E701C909101E0FEA3E05C
:103948004E70127D01FC7F0A126D24909109E4F0FB
:10395800A37402F022E49090BDF0A3F0227D017CD4
:10396800007F06126D24909109E4F0A37403F022FD
:10397800126CDFE4FFFEFDFC9090FB12091CC312E1
:1039880008D970069090BDF0A3F09090BFE0FEA318
:10399800E064014E70127D04FC7F02126D24909148
:1039A80009E4F0A37406F0229090BDE0FEA3E04E77
:1039B80070127D04FC7F02126D24909109E4F0A33B
:1039C8007408F022909101E0FEA3E064014E6003C8
:1039D800023AD69090BDF0A3F0A3F0A304F0229091
:1039E80090BDE0FEA3E064014E7010A3E0FEA3E0EA
:1039F8004E7008909109F0A37402F09090BDE0FE1B
:103A0800A3E04E6003023AD6A3E0FEA3E04E6003B3
:103A1800023AD6909109F0A37408F0229090DDE064
:103A2800FEA3E0FF9090DBE0FCA3E02FFFEC3EFE5E
:103A38009090DFE0FCA3E0FD120A7CC006C007906E
:103A480090DDE0FEA3E0FFFBAA06E4F9F8D007D07A
:103A5800061207E29090FB1209289090B7120910FD
:103A6800EFEEE49090B5EEF0A3EFF0A31209107812
:103A7800101208EAEFEEE49090B3EEF0A3EFF07BBB
:103A8800017A9079B3908F29E4F0A37402F07F064D
:103A98007E007D007C00125F2F9090DBE0FCA3E0AD
:103AA800FD7F017E00125B319090DDE0FCA3E0FD1C
:103AB8007F017E00125C059090DFE0FCA3E0FD7FB3
:103AC800017E00125DA8909109E4F0A304F0229011
:103AD8008EFFEEF0A3EFF0A3120991908F04E0FEA1
:103AE800A3E04E70037F0122908EFFE0A3E0540113
:103AF800FF908F06E4F0A3EFF0908EFFE0FEA3E0C6
:103B0800FFEEC313FEEF13FF908EFFEEF0A3EFF06E
:103B1800C2AFE4F5F1908EFFE0FEA3E0EEF5F2907F
:103B28008EFFE0A3E0F5F375F40175F8AF30FCFD06
:103B3800908F06E0FEA3E064014E7065908F04E06C
:103B4800FEA3E064014E700575F8A2800375F8A322
:103B5800D2FE20FEFD908F04E0FEA3E064014E70CB
:103B680017908F0175F00112097AE5FC120612E42C
:103B7800908F04F0A3F08029908F01E475F0011272
:103B8800097AE5FC120612908F01E475F00112091A
:103B98007AE5FD120612908F0474FF75F0FE120686
:103BA800AD908F04E0FEA3E0D39400EE94005003A0
:103BB800023CB6908F04E0A3E08EF0120A493BD68F
:103BC80000013BF600023C25000300003C6475F848
:103BD800A8D2FE20FEFD908F01E475F00112097A4B
:103BE800E5FA120612E4908F04F0A3F080B375F89A
:103BF800ACD2FE20FEFD908F01E475F00112097A27
:103C0800E5FA120612908F01E475F00112097AE5BF
:103C1800FB120612E4908F04F0A3F0808475F8AECE
:103C2800D2FE20FEFD908F01E475F00112097AE5BD
:103C3800FA120612908F01E475F00112097AE5FB79
:103C4800120612908F01E475F00112097AE5FC1250
:103C58000612E4908F04F0A3F0023BA975F8AFD2E6
:103C6800FE20FEFD908F01E475F00112097AE5FA55
:103C7800120612908F01E475F00112097AE5FB1221
:103C88000612908F01E475F00112097AE5FC12061C
:103C980012908F01E475F00112097AE5FD120612FF
:103CA800908F0474FF75F0FC1206AD023BA9E4F591
:103CB800F8D2AFFF2242921D000042921F0000423C
:103CC80092210000608A901D000047543330300074
:103CD800000000000000000000000000000000B428
:103CE8000708000100630001176F0001176F01F456
:103CF8000F3C03E83E8000004754353000000000C8
:103D08000000000000000000000000000384070815
:103D1800000100630001176F0001176F03D4073A11
:103D280000410DAC00000000000000000000000091
:103D3800000000000000000000000000000000007B
:103D4800000000000000000000000000000000006B
:103D5800000060209119000100030004000500061E
:103D6800000700080009000A000C000D00120013EB
:103D7800001500160000C100011F006100886A00DC
:103D8800000000000000000000000000000000002B
:103D9800000000000000000000000000000000001B
:103DA800000000000000000000000000000000000B
:103DB80000000000000000000000000000000000FB
:103DC80000000000000000000000000000000000EB
:103DD80000000000000000000000000000000000DB
:103DE80000000000000000000000000000000000CB
:103DF80000000000000000000000000000000000BB
:103E080000000000000000000000000000000000AA
:103E1800000000000000000000000000000000009A
:103E2800000000000000000000000000000000008A
:103E3800000000000000000000000000000000007A
:103E4800000000000000000000000000000000006A
:103E5800000000000000000000000000000000005A
:103E6800000000000000000000000000000000004A
:103E780000000000000000000000000000000041F9
:103E8800896A0041896B0041896C0041896D000293
:103E98002B000000908F04EEF0A3EFF0E4A3F0A352
:103EA800F07B017A9079A7A3120991908F04E0FE24
:103EB800A3E08EF0120A493EEF00013F4900023F9D
:103EC8003D00033F63000540300006401600073FF1
:103ED800290008404C00094021000A4029000B40F5
:103EE80067000C0000406E9090BFE0FEA3E0640104
:103EF8004E700D9090BDF0A304F0E4A3F0A3F0225F
:103F08009090BFE0FEA3E04E600302406E9090BD2B
:103F1800E0FEA3E04E600302406E7F0AFE12479F58
:103F2800229090BDE4F0A304F0E4A3F0A3F07F098D
:103F3800FE12479F22E49090BDF0A3F0A3F0A3F0F7
:103F4800229090BDE0FEA3E04E700302406EE49024
:103F580090BDF0A3F0A3F0A304F0229090BFE0FE80
:103F6800A3E064014E700302406E9090BDE0FEA392
:103F7800E04E600302406E9090FFF0A3F09090B185
:103F8800F0A3F07B017A9079B1908F30F0A304F020
:103F98007F0A7E201250FD9090FFE0FEA3E0FF1202
:103FA80066187B017A9079B1908F29E4F0A37402A6
:103FB800F07F057E007D007C00125F2F7B017A90E8
:103FC80079D9908F13E4F0A37404F0E4FFFE12266D
:103FD800FA9090D9E0FCA3E0FD7F017E00126B25EA
:103FE8009090DFE0FCA3E0FD7F017E00125DA890C9
:103FF80090DBE0FCA3E0FD7F017E00125B31909036
:10400800DDE0FCA3E0FD7F017E00125C0522126F5B
:10401800E37F067E0012479F227F097E0012479F9A
:1040280022E4FFFE12479F229090BFE0FEA3E064C7
:10403800014E60329090BDE0FEA3E04E7028FFFE76
:1040480012479F229090A7E0FEA3E064044E7007F9
:104058007F05FE12479F227F047E0012479F227F22
:10406800077E0012479F22E4908EF7F0A3F07B01B1
:104078007A9079A7A31209917E007F727D00120AB7
:10408800A9126EA59090A7E0FEA3E0D39400EE9449
:104098000040099090A7E4F0A37404F07B017A90A3
:1040A80079A7908F30E4F0A37402F07F007E21128C
:1040B80050FD1255639090B3E0FEA3E0FFE4FCFDD1
:1040C8009090B71209289090B7120910781012082A
:1040D800FD9090B71209289090B712091C9090B5DE
:1040E800E0FEA3E0FFE4FCFD1208BEA3120928E4E9
:1040F8007B107A0EF9F89090B712091012082C90DC
:1041080090BBEEF0A3EFF09090AFE0FEA3E0D39465
:1041180003EE94004007E49090AFF0A3F07B017A9F
:104128009079CD908F23E4F0A37406F07F707E0120
:104138007D007C00125FE79090D5E0FEA3E0B4FF1D
:1041480032EEB4FF2E7B017A9079CDC0019090AF0A
:10415800E0FEA3E0FF7C007D2E12064674432FF993
:1041680074903EA801FC7D01D0017E007F081205F5
:10417800A680269090AFE0FEA3E0FF7C007D2E1283
:10418800064674432FF974903EFA7B0178CD7C90F3
:104198007D017E007F081205A6125E719090A7E04F
:1041A800FEA3E064044E70177BFF7A747928908F21
:1041B80030F0A3740BF07F007E301250FD80299000
:1041C80090AFE0FEA3E0FF7C007D2E120646741F30
:1041D8002FF974903EFA7B01908F30E4F0A37414A9
:1041E800F07F007E301250FD7BFF7A74791D908F2E
:1041F80030E4F0A3740BF07F007E311250FD9090F4
:10420800AFE0FEA3E090901D75F02E120965EE75E3
:10421800F02EA42583F583E0FEA3E0FF90910BEE3A
:10422800F0A3EFF012521A7FA07E0F126C4C7F0998
:104238007E0012479F22908EFB120991908EFEEC11
:10424800F0A3EDF0908EFEE0FEA3E07802C333CE3B
:1042580033CED8F924EAF58274733EF583E493FEED
:10426800740193FF908EFB120971EE8FF01207898B
:10427800908EFEE0FEA3E07802C333CE33CED8F9A9
:1042880024ECF58274733EF583E493740193FF90F4
:104298008EFB120971900008EF120624908EFB1213
:1042A80009719000081205E5120A2342C00042F77E
:1042B80001435102000043AF7BFF7A667997C00340
:1042C800C002C001908EFB1209719000091209CA40
:1042D800908EFB120971900002E4F5F01207A89085
:1042E8008EFB120971900004E4F5F01207A82290E1
:1042F8008EFB1209711206D9FFAEF0908EFB1209DF
:1043080071E92402F9E43AFA908F30E4F0A304F05A
:10431800125878908EFB120971900002120704FF60
:10432800908EFB120971900004E5F08FF01207A837
:104338007BFF7A5C79D9C003C002C001908EFB1262
:1043480009719000091209CA227BFF7A6F7913C09C
:1043580003C002C001908EFB120971900009120976
:10436800CA7BFF7A6F7949C003C002C001908EFBF7
:1043780012097190000C1209CA908EFB12097190F3
:104388000002E4F5F01207A8908EFB120971900064
:1043980004E4F5F01207A8908EFB1209719000064C
:1043A800E4F5F01207A8227B007A007900C003C068
:1043B80002C001908EFB1209719000091209CA7B94
:1043C800007A007900C003C002C001908EFB120978
:1043D8007190000C1209CA908EFB120971900002AC
:1043E800E4F5F01207A8908EFB120971900004E41E
:1043F800F5F01207A8908EFB120971900006E4F5FB
:10440800F01207A822908EFFEEF0A3EFF0A3120996
:1044180091908F04E0FEA3E04E70037F0122908EFE
:10442800FFE0A3E05401FF908F06E4F0A3EFF090C3
:104438008EFFE0FEA3E0FFEEC313FEEF13FF908EA6
:10444800FFEEF0A3EFF0C2AFE4F5F1908EFFE0FECF
:10445800A3E0EEF5F2908EFFE0A3E0F5F375F4012A
:1044680075F88F30FCFD908F06E0FEA3E064014EE6
:104478007057908F04E0FEA3E064014E701A75F83F
:1044880082908F0175F00112097A1205CCF5FCE4CF
:10449800908F04F0A3F0802C75F883908F01E47559
:1044A800F00112097A1205CCF5FC908F01E475F041
:1044B8000112097A1205CCF5FD908F0474FF75F08E
:1044C800FE1206ADD2FE20FEFD908F04E0FEA3E0B2
:1044D800D39400EE940050030245D5908F04E0A3D6
:1044E800E08EF0120A4944FE0001451A00024545D3
:1044F80000030000457E75F888908F01E475F0018F
:1045080012097A1205CCF5FAE4908F04F0A3F002B0
:1045180045C875F88C908F01E475F00112097A127C
:1045280005CCF5FA908F01E475F00112097A1205AD
:10453800CCF5FBE4908F04F0A3F00245C875F88E23
:10454800908F01E475F00112097A1205CCF5FA9002
:104558008F01E475F00112097A1205CCF5FB908FF2
:1045680001E475F00112097A1205CCF5FCE4908F8C
:1045780004F0A3F0804A75F88F908F01E475F0017C
:1045880012097A1205CCF5FA908F01E475F0011240
:10459800097A1205CCF5FB908F01E475F001120938
:1045A8007A1205CCF5FC908F01E475F00112097AB6
:1045B8001205CCF5FD908F0474FF75F0FC1206AD62
:1045C800D2FE20FE030244D180F80244D1E4F5F87B
:1045D800D2AFFF22C0E0C083C082C0D075D010AF78
:1045E8009F750C008F0D5397FEE529D39400400367
:1045F800024796752A00E522120A23461000465FF4
:1046080001471B0200004793E521650D7002E50C88
:104618006003024796908B8AE50DF0752301752299
:10462800017526FF7527FFE526650CE527650D252D
:10463800E0FFE433FE74EA2FF58274703EF583E4FC
:1046480093F50E740193F50FE526FFE50EF526EFB9
:10465800650FF527024796AE230523748A2EF58247
:10466800E4348BF583E50DF0E523C39407502DE57D
:1046780026650CE527650D25E0FFE433FE74EA2F77
:10468800F58274703EF583E493F50E740193F50F8B
:10469800E526FFE50EF526EF650FF527E523640708
:1046A800704E908B8BE064107046E526650CE5270C
:1046B800650D25E0FFE433FE74EA2FF58274703E41
:1046C800F583E493F50E740193F50FE526FFE50EE7
:1046D800F526EF650FF527908B90E02409F524D394
:1046E80094FC4006752200024796752202024796FE
:1046F800E523C394085003024796908B91E0B526B2
:104708000D908B90E0B52706752800752902752253
:1047180000807BAE230523748A2EF582E4348BF562
:1047280083E50DF0E52414FFE523C39F502DE5260E
:10473800650CE527650D25E0FFE433FE74EA2FF5E7
:104748008274703EF583E493F50E740193F50FE5DA
:1047580026FFE50EF526EF650FF527E523C395241B
:10476800402C74892524F582E4348BF583E0B52642
:104778001574882524F582E4348BF583E0B5270683
:104788007528007529027522008003752200D0D093
:10479800D082D083D0E032908F0EEEF0A3EFF0906D
:1047A8008F0EE0FEA3E025E0FFEE33FE74192FF52F
:1047B8008274913EF583E0FEA3E0FF908F10EEF047
:1047C800A3EFF0908F0EE0FEA3E08EF0120A4947A7
:1047D800E700094864000B48A2000D0000491A9040
:1047E80090DDE0FEA3E0FF9090DBE0FCA3E02FFF6C
:1047F800EC3EFE9090DFE0FCA3E0FD120A7CC006D0
:10480800C0079090DDE0FEA3E0FFFBAA06E4F9F8FC
:10481800D007D0061207E29090FB1209289090D991
:10482800E0FCA3E0FD7F017E00126B259090DFE0A5
:10483800FCA3E0FD7F017E00125DA89090DBE0FC08
:10484800A3E0FD7F017E00125B319090DDE0FCA3C8
:10485800E0FD7F017E00125C0502491A9090E1E0BC
:10486800FCA3E0FD7F027E00126B259090E7E0FC40
:10487800A3E0FD7F027E00125DA89090E3E0FCA318
:10488800E0FD7F027E00125B319090E5E0FCA3E042
:10489800FD7F027E00125C0580789090E1E0FCA329
:1048A800E0FD7F027E00126B259090E7E0FCA3E01C
:1048B800FD7F027E00125DA89090E3E0FCA3E0FD7E
:1048C8007F027E00125B319090E5E0FCA3E0FD7F63
:1048D800027E00125C059090EDE0FCA3E0FD7F04F1
:1048E8007E00126B259090F3E0FCA3E0FD7F047E30
:1048F80000125DA89090EFE0FCA3E0FD7F047E002D
:10490800125B319090F1E0FCA3E0FD7F047E001281
:104918005C05908F10E0FEA3E0FF126EDC22908E03
:10492800F71209917E007F307D007B017A9179ED45
:10493800120AA97B017A9179ED9088221209917A5D
:104948009179EF9088251209917A9179F1908828C8
:104958001209917A9179F390882B1209917A9179B9
:10496800F590882E1209917A9179F7908831120979
:1049780091908EF7120971E9240CF9E43AFA9088BB
:1049880034120991908EF7120971E9240EF9E43A6C
:10499800FA908837120991908EF7120971E924105C
:1049A800F9E43AFA90883A1209917B017A9179FFF1
:1049B80090883D1209917A92790190884012099164
:1049C8007A9279039088431209917A9279059088AE
:1049D800461209917A9279079088491209917A9238
:1049E800790990884C120991908EF7120971E9247F
:1049F8001EF9E43AFA90884F120991908EF712093D
:104A080071E92420F9E43AFA908852120991908EBB
:104A1800F7120971E92422F9E43AFA908855120943
:104A280091908EF7120971E92424F9E43AFA9088F2
:104A380058120991908EF7120971E92426F9E43A7F
:104A4800FA90885B120991908EF7120971E924286F
:104A5800F9E43AFA90885E120991908EF71209717A
:104A6800E9242AF9E43AFA908861120991908EF7BC
:104A7800120971E9242CF9E43AFA90886412099130
:104A8800908EF7120971E9242EF9E43AFA908867B2
:104A980012099122908EFAEEF0A3EFF07B017A9042
:104AA80079A7908F00120991909019E0FEA3E0D3A6
:104AB8009400EE9400400A90901974FFF5F01206E5
:104AC800AD909019E0FEA3E04E6003024C0F909069
:104AD80019F0A374C8F09090BDE0FEA3E064014E05
:104AE8006003024BF99090AFE0FEA3E09090477509
:104AF800F02E120965EE75F02EA42583F583E0FEED
:104B0800A3E0FF908EFAE0FCA3E0C39FEC9E502642
:104B18009090AFE0FEA3E090904775F02E120965E3
:104B2800EE75F02EA42583F583E0FEA3E0FF908EBA
:104B3800FAEEF0A3EFF09090AFE0FEA3E09090477C
:104B480075F02E120965EE75F02EA42583F583E025
:104B5800FEA3E0FF908EFAE0FCA3E0C39FFDEC9E6D
:104B6800FCE412041C908EFC1209289090AFE0FE21
:104B7800A3E090904775F02E120965EE75F02EA40B
:104B88002583F583E0FEA3E0FF9090AFE0FCA3E06F
:104B980090904975F02E120965EC75F02EA42583C6
:104BA800F583E0FCA3E0C39FFDEC9EFCE412041C2B
:104BB800A804A905AA06AB07908EFC1209101203D7
:104BC80001E4FBFA79C878421201F8908EFC1209C8
:104BD80028E4FFFE7DC87C42908EFC12091C12035B
:104BE8009E60184016908EFC12093442C80000805E
:104BF8000A908EFC12093400000000908EFC120905
:104C08001012045512609F22E4908EFEF0908B8B58
:104C1800E0120A234C29034C9A064CF01000004D70
:104C280066908B8EE0FEA3E04E600F908B8EE0FEC8
:104C3800A3E0D39473EE940040037F0022908CB6D7
:104C4800E521F0A37403F0908B8EE0A3E025E090BB
:104C58008CB8F0E02405F525908B8CE0FEA3E025C8
:104C6800E0FFEE33908EFCF0A3EFF0908B8CE0FE2B
:104C7800A3E0FF7B017A8C79B9908CB8E0FD908F26
:104C880004E4F0A3EDF0123AD7908EFE7401F0021E
:104C98004D69908B8CE0FEA3E0FF7B017A8B798EC7
:104CA800908F04E4F0A37402F012440D752508E413
:104CB800908EFBF0908EFBE0C394065023E0248A8C
:104CC800F582E4348BF583E0FF908EFBE024B6F5A3
:104CD80082E4348CF583EFF0908EFBE004F080D40E
:104CE800908EFE7401F08079908B8EE0FEA3E04EEA
:104CF800600F908B8EE0FEA3E0D3947DEE9400408D
:104D0800037F0022908B8CE0FEA3E0FF7B017A8B6F
:104D18007991908B90E0FD908F04E4F0A3EDF01270
:104D2800440D752508E4908EFBF0908EFBE0C3944B
:104D3800065023E0248AF582E4348BF583E0FF9063
:104D48008EFBE024B6F582E4348CF583EFF0908E88
:104D5800FBE004F080D4908EFE7401F080037F00A5
:104D680022908EFEE0FF22908EF7EFF0E02404F50B
:104D780082E43488F583E0120A234E9C004DB0018A
:104D88004DB0024DE8044DB0064DB0074E06084E32
:104D980006094E240A4E240B4E420C4E420D4E601C
:104DA8000E4E7E1000004EA6908EF7E075F0029031
:104DB800880C120965E0FEA3E0FF9091F5EEF0A3E0
:104DC800EFF0908EF7E075F002A4240CF9748835A2
:104DD800F0FA7B017D017C007F047E001234D8222A
:104DE800908EF7E075F002A4240CF9748835F0FA77
:104DF8007B017D017C007F057E001234D822908ED5
:104E0800F7E075F002A4240CF9748835F0FA7B01F8
:104E18007D017C007F0F7E001234D822908EF7E04F
:104E280075F002A4240CF9748835F0FA7B017D0131
:104E38007C007F107E001234D822908EF7E075F047
:104E480002A4240CF9748835F0FA7B017D017C00FA
:104E58007F127E001234D822908EF7E075F002A4FB
:104E6800240CF9748835F0FA7B017D017C007F15EC
:104E78007E001234D822908EF7E075F002A4240C3C
:104E8800F9748835F0FA7B017D017C007F167E007D
:104E98001234D8227D187C00E4FFFE12533422908D
:104EA8008EF9120991E4908EFCF0A3F0908EF9121D
:104EB80009711206D945F070559090BDF0A304F021
:104EC8009090F5E0FEA3E0D39400EE9400400A90A1
:104ED80090F574FFF5F01206AD9090F5E0FEA3E0B2
:104EE8004E6003024F8B9090DBE0FEA3E0FF9090B2
:104EF800F5EEF0A3EFF0908EF9120971E475F00168
:104F0800120789908EFCE4F0A37402F08075908EED
:104F1800F91209711206D9640145F070669090BDC6
:104F2800F0A37402F09090F7E0FEA3E0D39400EEB3
:104F38009400400A9090F774FFF5F01206AD909037
:104F4800F7E0FEA3E04E703B9090DDE0FEA3E0FFAB
:104F58009090F7EEF0A3EFF0A3E0FEA3E0D3940067
:104F6800EE9400400A9090F974FFF5F01206AD90A7
:104F78008EF9120971E4F5F0120789908EFCE4F0BD
:104F8800A304F0E4FFFEFDFC9090FB12091CD31271
:104F980008D940159090FB12091074FFFBFAF9F834
:104FA8001207D59090FB120928E4FFFEFDFC9090B3
:104FB800FB12091CC31208D97008908EFCF0A37468
:104FC80003F0908EFCE0FEA3E0FF22908F221209EE
:104FD80091908F22120971900002120704120A4957
:104FE80050040001502E000250570003505700048F
:104FF8005080000650A90009000050D0908F22125E
:105008000971900004E475F0011207A8908F22122C
:10501800097190000C74FF75F0001207A8908F2595
:10502800740CF00250D0908F22120971900004E4A1
:1050380075F0011207A8908F221209719000107460
:10504800FF75F0001207A8908F257410F0807990F2
:105058008F22120971900004E475F0011207A890DC
:105068008F2212097190001074FF75F0001207A8C2
:10507800908F257410F08050908F22120971900043
:1050880004E475F0011207A8908F221209719000AC
:105098001474FF75F0001207A8908F257414F0801F
:1050A80027908F22120971900004E475F00112070D
:1050B800A8908F2212097190000E74FF75F00012EB
:1050C80007A8908F25740EF0908F2212097112068E
:1050D800D9FFAEF0908F22120971E92402F9E43A5F
:1050E800FA908F25E0FDC313FD908F30E4F0A3ED17
:1050F800F01250FD22908F2BEEF0A3EFF0A31209CF
:1051080091908F2BE0A3E05401908F32F0908F2B79
:10511800E0FEA3E0FFEEC313FEEF13FF908F2BEE2C
:10512800F0A3EFF0E4F5F1908F2BE0FEA3E0EEF5AD
:10513800F2908F2BE0A3E0F5F375F40175F88F304A
:10514800FCFD908F32E0603C908F30E0FEA3E0D30E
:105158009400EE9400402D75F883908F2DE475F03F
:105168000112097A1205CCF5FC908F2DE475F00137
:1051780012097A1205CCF5FDD2FE908F3074FFF536
:10518800F01206AD75F88F908F30E0FEA3E0C3945F
:1051980002EE9400404B908F2DE475F00112097ACD
:1051A8001205CCF5FA908F2DE475F00112097A12E8
:1051B80005CCF5FB908F2DE475F00112097A1205E4
:1051C800CCF5FC908F2DE475F00112097A1205CC0C
:1051D800F5FDD2FE908F3074FF75F0FE1206AD809B
:1051E800A6908F30E0FEA3E04E602375F88C908F78
:1051F8002DE475F00112097A1205CCF5FA908F2D7D
:10520800E475F00112097A1205CCF5FBD2FEE4F53B
:10521800F8227B017A9079A7908F131209919090C8
:10522800AFE0FEA3E090904375F02E120965EE758D
:10523800F02EA42583F583E0FEA3E0FF9090AFE075
:10524800FCA3E090904575F02E120965EC75F02EE0
:10525800A42583F583E0FCA3E0C39FFDEC9EFCE45A
:1052680012041C908F0B1209289090AFE0FEA3E067
:1052780090903375F02E120965EE75F02EA42583F3
:10528800F583E0FEA3E0FF9090AFE0FCA3E09090F0
:105298003575F02E120965EC75F02EA42583F5837B
:1052A800E0FCA3E0C39FFDEC9EFCE412041C908F7D
:1052B8000F120928908F0F12091C908F0B120910DA
:1052C8001203019090C51209289090AFE0FEA3E068
:1052D80090903375F02E120965EE75F02EA4258393
:1052E800F583E0FCA3E0FDE412041C9090C51209CC
:1052F8001C1201F8908F0B1209289090AFE0FEA3C2
:10530800E090904375F02E120965EE75F02EA425F5
:1053180083F583E0FCA3E0FDE412041C908F0B12DC
:10532800091C1201039090C912092822908EF8EEE8
:10533800F0A3EFF0A3ECF0A3EDF0E47818F608F68C
:1053480008F6A3F0A3F07BFF7A7279EA78FE7C8EE8
:105358007D01FE7F801205A6908EF8E0FEA3E02472
:1053680000FFEE3410908EFCF0A3EFF0908EFCE07E
:10537800FEA3E0FF908820EEF0A3EFF090881F7462
:1053880003F090881EE0FF7818E60624FEF582E414
:10539800348EF583EFF0E60624FEF582E4348EF5CC
:1053A800837403F0908EFCE0FEA3E0EEFFE6062493
:1053B800FEF582E4348EF583EFF0908EFCE0A3E0F6
:1053C800FFE60624FEF582E4348EF583EFF0908E36
:1053D800FAE0FEA3E0EEFFE60624FEF582E4348E52
:1053E800F583EFF0908EFAE0A3E0FFE60624FEF5E1
:1053F80082E4348EF583EFF07B017A8E79FEE6FD48
:105408007C001259697819A60608A60718E608E666
:10541800FF7818E60624FEF582E4348EF583EFF073
:1054280008E6FE08E6EEFF7818E60624FEF582E4B4
:10543800348EF583EFF07B017A8E79FEE6FD7C00F1
:10544800126E2A22909109E0FEA3E064034E6003E5
:105458000254E090921D75F0011206AD90921DE085
:10546800FEA3E0C39404EE9400406DE490921DF016
:10547800A3F07B017A91790D124EA7908EF7EEF08A
:10548800A3EFF0908EF7E0FEA3E064014E700A7D72
:1054980001FC7F06126D24802A908EF7E0FEA3E0BF
:1054A80064024E700A7D04FC7F02126D2480149001
:1054B8008EF7E0FEA3E064034E700890921FF0A3FD
:1054C800740AF09090B7120910E47B01FAF9F81207
:1054D80007D59090B7120928909109E0FEA3E064DF
:1054E800014E707690910DF0A3F090921FE0FEA30C
:1054F800E04E603A90921F74FFF5F01206AD90925C
:1055080021E0FEA3E0FFC374019FFFE49E90922177
:10551800F0A3EFF0909221E0FEA3E04E601090908F
:10552800ADE0FEA3E04E70067F14FE1200039091DA
:1055380017E0FEA3E0D39400EE9400400A90911780
:1055480074FFF5F01206AD909117E0FEA3E0640138
:105558004E7007FDFC7F0B126D24229090A7E0FE91
:10556800A3E0D39400EE940040099090A7E4F0A340
:105578007404F07B017A9079A7908F30E4F0A374DB
:1055880002F07F007E211250FD9090ABE0FEA3E078
:10559800D39464EE940040099090ABE4F0A3746453
:1055A800F09090ABE0FEA3E0C3940AEE940050099B
:1055B8009090ABE4F0A3740AF09090ABE0FEA3E007
:1055C800FF1263E47B017A9079AB908F30E4F0A30B
:1055D80004F07F007E121250FD9090ADE0FEA3E033
:1055E800D39401EE940040089090ADE4F0A304F049
:1055F8009090ADE0FEA3E0C3EE94005007E49090D5
:10560800ADF0A3F09090ADE0FEA3E0FFC374019F5E
:10561800FFE49EFE12696B7B017A9079AD908F3022
:10562800E4F0A304F0FF7E121250FD9090A9E0FE72
:10563800A3E0C39403EE940040099090A9E4F0A37A
:105648007403F09090A9E0FEA3E0D39400EE9400D8
:105658005007E49090A9F0A3F07B017A9079A99083
:105668008F30E4F0A304F07FFF7E0F1250FD2290EC
:105678008EF81209917E007F807D007B017A8979FE
:1056880074120AA9908EF81209711205CC90896ECD
:10569800F0908EF81209719000011205E590896F5B
:1056A800F0908820E0FEA3E0FF908970EEF0A3EF71
:1056B800F090896FE064037074908EF8120971900D
:1056C80000021205E5FFC313FF908972E4F0A3EF0F
:1056D800F0E47818F67818E6FF908972E0FCA3E009
:1056E800FDC3EF9DE49C506C908EF8120971E6752D
:1056F800F0029000031209651205E5FE908EF8127B
:1057080009717818E675F00290000412096512050F
:10571800E57C002400FFEC3EFE7818E675F0029068
:105728008974120965EEF0A3EFF00680A8908EF850
:105738001209719000041205E5FE908EF8120971A5
:105748009000051205E57C002400FFEC3E9089726C
:10575800F0A3EFF07B017A89796EC002C0017A8AE2
:10576800798A908EFE120991D001D002125A4E7B8E
:10577800017A89796E22908F04EEF0A3EFF07B0115
:105788007A9079A7908F08120991908F04E0FEA370
:10579800E08EF0120A4957C5000157AA000200001E
:1057A80057DE9090B1E0FEA3E0C39414EE9400504D
:1057B800259090B1E475F0011206AD80199090B172
:1057C800E0FEA3E0D39401EE9400400A9090B174F7
:1057D800FFF5F01206AD7B017A9079B1908F30E435
:1057E800F0A37402F07F477E201250FD7B017A906F
:1057F80079ED908F13E4F0A37406F0E4FFFE12260F
:10580800FA9090EDE0FCA3E0FD7F047E00126B258A
:105818009090F3E0FCA3E0FD7F047E00125DA89069
:1058280090EFE0FCA3E0FD7F047E00125B319090D6
:10583800F1E0FCA3E0FD7F047E00125C05E4908F9C
:1058480006F0A3F07B017A8F7906908F30F0A3746D
:1058580002F07F107E111250FD7B017A8F7906903D
:105868008F30E4F0A37402F07F127E111250FD22F3
:10587800908F2BEEF0A3EFF0A3120991908F2BE0FD
:10588800A3E05401908F32F0908F2BE0FEA3E0FF4D
:10589800EEC313FEEF13FF908F2BEEF0A3EFF0E4AF
:1058A800F5F1908F2BE0FEA3E0EEF5F2908F2BE060
:1058B800A3E0F5F375F40175F8AF30FCFD908F3077
:1058C800E0FEA3E0D39400EE94005003025965D2A1
:1058D800FE20FEFD908F32E0703D908F30E0FEA3F9
:1058E800E0D39400EE9400402E908F2DE475F001E3
:1058F80012097AE5FA120612908F2DE475F001125A
:10590800097AE5FB120612908F327401F0908F30FD
:1059180074FFF5F01206AD908F32E0B4019F908FBE
:1059280030E0FEA3E0D39400EE94004090908F2DD9
:10593800E475F00112097AE5FC120612908F2DE445
:1059480075F00112097AE5FD120612E4908F32F023
:10595800908F3074FFF5F01206AD0258C5E4F5F8E3
:1059680022909003120991909006ECF0A3EDF07448
:10597800FFA3F0A3F0A37480F0A37405F0E4A3F0F0
:1059880090900674FFF5F01206C345F07003025AB2
:1059980036909003E475F00112097A1205CC9090C4
:1059A8000CF07B017A90790C909012120991126593
:1059B8000D909008E0FCA3E0FD90900CE0FEEC6EEA
:1059C800FEEDFF909008EEF0A3EFF0E490900DF05C
:1059D800A3F090900DE0FEA3E0C39408EE648094D9
:1059E80080509D909008E0FEA3E0EE30E721909073
:1059F80008A3E025E0FFEE33FEA3E0FCA3E0FDEE04
:105A08006CFEEF6DFF909008EEF0A3EFF08013901E
:105A18009008E0FEA3E025E0FFEE33909008F0A3A5
:105A2800EFF090900DE475F0011206AD80A47B01B3
:105A38007A9079089090121209911262AB909008AE
:105A4800E0FEA3E0FF22908EFB120991E47819F69C
:105A580008F608F608F6908EFB120971E92406F993
:105A6800E43AFA908F011209917B007A007900904C
:105A78008EFE120991908EFB120971900002120796
:105A8800042400FFE5F034F07819F608A607908E94
:105A9800FB1209719000011205E5120A235AB50399
:105AA8005B30065B30105B308300005B30E4781BB2
:105AB800F608F6908EFB120971900004120704FF95
:105AC800781BE6FC08E6C39FEC95F0505B908EFBD4
:105AD800120971E92406F9E43AFA18E6FE08E625FF
