:10000000025C87908EE1EEF0A3EFF07B017A8E79AF
:10001000E1908F18E4F0A304F07FA07E00124BCE95
:0100200022BD
:0700230002671612005E22C5
:10002B00025FB1E4F58E75C870F593759401759503
:10003B0002F5C9F5F875F901F5A8F5B8F59AF5A922
:06004B00F5B953C9FD22C6
:030053000269112E
:10005B0002433B908802E064207051A3E070187F4C
:10006B0001FE120003E4908820F0A3F090881FF0AB
:10007B0090880204F0802990881DE014F0E0FF12B4
:10008B0050349088027404F090881DE02404F582AB
:10009B00E43488F583E4F090881DE004F05407F015
:1000AB00908803E0D394004003E014F0908802E0C2
:1000BB006401703390881CE0FFA3E0B50707E4FDF3
:1000CB00FCFF12684A9088027408F090881DE0FFCC
:1000DB001250349088037403F090880204F09088D7
:0800EB001DE004F05407F022AF
:1000F800FFFF4457494E54350204C1E86480F8E9CB
:1001080033E83360110460F0ED33EC337009E8FC38
:10011800E9FDEAFEEBFF220460DED3EB9FEA9EE9ED
:100128009DE8C2E78CF0C2F795F0400CE8CCF8E9FE
:10013800CDF9EACEFAEBCFFB12048C85D0F0580447
:10014800700320D5B3E80470075002B2D50204CB7F
:1001580092D5EC0460F7E4CCC0E0C398F8603B9417
:10016800186008400DD0E0FB0204A3E4FBFAC9FCC8
:100178008028E830E406E4C9FBE4CAFCE830E3057B
:10018800E4C9CACBFCE854076010F8C3E913F9EADC
:1001980013FAEB13FBEC13FCD8F130F52FC3E49CF6
:1001A800FCEF9BFFEE9AFEED99FDD0E0FBEF4E4D84
:1001B8004C701222DB030204C8EC2CFCEF33FFEE78
:1001C80033FEED33FDED30E7EB0204A3EF2BFFEE3A
:1001D8003AFEED39FDD0E0FB50130BBB00030204DF
:1001E800CBED13FDEE13FEEF13FFEC13FC0204A39B
:1001F800EC4D6011E8497017ED33EC3304600DE401
:10020800FCFFFEFD22E933E8330470F80204C11252
:10021800048C58046009E4CC248150062850090253
:1002280004CB2840030204C8C0E0EB4A7044B980FC
:1002380006D0E0FB0204B7EF4E701CBD8008EBFF50
:10024800EAFEE9FD80EBE98DF0A4FEE5F00202E1AB
:10025800E9CDF9EAFEEBFFEF89F0A4FCE5F0CE89E1
:10026800F0A42EFFE435F0CD89F0A42DFEE435F09E
:100278008067EF4E7005BD80D780C3EF8BF0A4ACCC
:10028800F0EE8BF0A42CFCE435F0F8EF8AF0A42C07
:10029800E5F038FCE433CB8DF0A42CFCE5F03BF81A
:1002A800EE8AF0A42CFCE5F038F8E433CF89F0A40A
:1002B8002CFCE5F038CF3400CE89F0A42FFFE5F010
:1002C8003EFEE433C98DF0A42EFEE5F039CD8AF068
:1002D800A42FFFE5F03EFEE43DFD33D0E0FB5007E0
:1002E8000BBB000F0204CBEC2CFCEF33FFEE33FE0C
:1002F800ED33FD0204A30204CBEC5D046005E8596C
:100308000470030204C112048C580460F6EC4860BF
:10031800F2EC7004FDFEFF22C860DB2481C850099E
:10032800C398600250060204C89850CAF582E929A9
:100338004B4A7005AB820204B775F0007C1A7880CE
:10034800C3EF9BEE9AED99400DC3EF9BFFEE9AFE2B
:10035800ED99FDE842F0DC23ACF0D0E0FFD0E0FE00
:10036800D0E0FDAB8220E7101BEB60BAEC2CFCEF71
:1003780033FFEE33FEED33FD0204A3E803F830E764
:1003880005C0F075F000EF2FFFEE33FEED33FD40B2
:10039800B830E7C280AA74F8CC6480CCC86480C83E
:1003A800F58204604FC3EB9FF5F0EA9E42F0E99DA9
:1003B80042F0E89C45F0603C501DE5825FFFE58215
:1003C800D313CB5BCBF42B5582FB50280ABA0024FD
:1003D80009B9002008801DE5825BFBE582D313CFB5
:1003E8005FCFF4C3132F5582FF50090EBE00050DD1
:1003F800BD00010CC3EB9FF5F0EA9E42F0E99D4277
:10040800F0E89C45F06007CC4820E701B3EC227582
:10041800F020800E75F010800575F0087D007E00D4
:100428007F003392D530D5031208CBEC334010EF60
:1004380033FFEE33FEED33FDEC33FCD5F0ED22E572
:10044800F0247EA2D513CC92E7CDCEFF22EDD2E7E1
:10045800CD33EC3392D524814006E4FFFEFDFC2227
:10046800FCE4CFCECDCC24E0501174FF80EDC3CC9A
:1004780013CCCD13CDCE13CECF13CF0470F030D51F
:10048800DE0208CBE9D2E7C933E833F892D5EDD2DA
:10049800E7CD33EC33FC5002B2D522EC30E7100F35
:1004A800BF000C0EBE00080DBD00040BEB6014A2CB
:1004B800D5EB13FCED92E7FD2274FFFCFDFEFF2255
:1004C800E480F8A2D574FF13FC7D80E480EFE7098F
:1004D800F608DFFA8046E709F208DFFA803E8882EC
:1004E8008C83E709F0A3DFFA8032E309F608DFFA24
:1004F8008078E309F208DFFA807088828C83E30948
:10050800F0A3DFFA806489828A83E0A3F608DFFA21
:10051800805889828A83E0A3F208DFFA804C80D26F
:1005280080FA80C680D4806980F28033801080A6EB
:1005380080EA809A80A880DA80E280CA8033898243
:100548008A83ECFAE493A3C8C582C8CCC583CCF0EF
:10055800A3C8C582C8CCC583CCDFE9DEE7800D8996
:10056800828A83E493A3F608DFF9ECFAA9F0EDFB9D
:100578002289828A83ECFAE0A3C8C582C8CCC583E5
:10058800CCF0A3C8C582C8CCC583CCDFEADEE8803E
:10059800DB89828A83E493A3F208DFF980CC88F0B0
:1005A800EF60010E4E60C388F0ED2402B4040050E1
:1005B800B9F582EB2402B4040050AF23234582230B
:1005C80090052673BB010689828A83E0225002E7E0
:1005D80022BBFE02E32289828A83E49322BB010CB8
:1005E800E58229F582E5833AF583E0225006E9257C
:1005F80082F8E622BBFE06E92582F8E222E5822996
:10060800F582E5833AF583E49322BB010689828A61
:1006180083F0225002F722BBFE01F322F8BB010D42
:10062800E58229F582E5833AF583E8F0225006E968
:100638002582C8F622BBFE05E92582C8F222EF8D85
:10064800F0A4A8F0CF8CF0A428CE8DF0A42EFE2222
:10065800BC000BBE0029EF8DF084FFADF022E4CC86
:10066800F875F008EF2FFFEE33FEEC33FCEE9DEC4F
:10067800984005FCEE9DFE0FD5F0E9E4CEFD22ED95
:10068800F8F5F0EE8420D21CFEADF075F008EF2FDF
:10069800FFED33FD4007985006D5F0F222C398FDD0
:1006A8000FD5F0EA22C5F0F8A3E028F0C5F0F8E588
:1006B80082158270021583E038F022A3F8E0C5F0B5
:1006C80025F0F0E582158270021583E0C838F0E85D
:1006D80022BB010A89828A83E0F5F0A3E022500652
:1006E80087F009E71922BBFE07E3F5F009E31922B1
:1006F80089828A83E493F5F074019322BB0110E5A3
:100708008229F582E5833AF583E0F5F0A3E02250EB
:1007180009E92582F886F008E622BBFE0AE9258267
:10072800F8E2F5F008E222E5832AF583E993F5F08B
:10073800A3E99322BB010DC58229C582C5833AC5A9
:10074800830206AD5011C58229F808E5F026F6188F
:10075800F5F0E58236F622BBFE11C58229F808E2DB
:1007680025F0F5F0F218E23582F222F8E58229F553
:1007780082E5832AF58374019325F0F5F0E4933834
:1007880022BB010A89828A83F0E5F0A3F022500691
:10079800F709A7F01922BBFE06F3E5F009F31922C1
:1007A800F8BB0111E58229F582E5833AF583E8F083
:1007B800E5F0A3F0225009E92582C8F608A6F02240
:1007C800BBFE09E92582C8F2E5F008F222EF2BFF0B
:1007D800EE3AFEED39FDEC38FC22C3EF9BFFEE9AB2
:1007E800FEED99FDEC98FC2275F008758200EF2F5C
:1007F800FFEE33FECD33CDCC33CCC58233C5829BDF
:10080800ED9AEC99E58298400CF582EE9BFEED9A04
:10081800FDEC99FC0FD5F0D6E4CEFBE4CDFAE4CCA0
:10082800F9A88222B800C1B90059BA002DEC8BF0A2
:1008380084CFCECDFCE5F0CBF97818EF2FFFEE335F
:10084800FEED33FDEC33FCEB33FB10D7039940048A
:10085800EB99FB0FD8E5E4F9FA227818EF2FFFEEB1
:1008680033FEED33FDEC33FCC933C910D7059BE9E2
:100878009A4007EC9BFCE99AF90FD8E0E4C9FAE43E
:10088800CCFB2275F010EF2FFFEE33FEED33FDCCDD
:1008980033CCC833C810D7079BEC9AE899400AEDC7
:1008A8009BFDEC9AFCE899F80FD5F0DAE4CDFBE46F
:1008B800CCFAE4C8F922EF4BFFEE4AFEED49FDEC15
:1008C80048FC22C3E49FFFE49EFEE49DFDE49CFCFB
:1008D80022EB9FF5F0EA9E42F0E99D42F0E89C4544
:1008E800F022E8600FECC313FCED13FDEE13FEEFEE
:1008F80013FFD8F122E8600FEFC333FFEE33FEEDAC
:1009080033FDEC33FCD8F122E0FCA3E0FDA3E0FECC
:10091800A3E0FF22E0F8A3E0F9A3E0FAA3E0FB22BA
:10092800ECF0A3EDF0A3EEF0A3EFF022A88285830C
:10093800F0D083D08212094B12094B12094B1209CD
:100948004BE473E493A3C583C5F0C583C8C582C8C7
:10095800F0A3C583C5F0C583C8C582C822A4258273
:10096800F582E5F03583F58322E0FBA3E0FAA3E006
:10097800F922F8E0FBA3A3E0F925F0F0E58215825F
:1009880070021583E0FA38F022EBF0A3EAF0A3E94D
:10099800F022BB010DE58229F582E5833AF5830251
:1009A80009715007E92582F8020AD5BBFE07E92537
:1009B80082F8020AE7E58229F582E5833AF583029F
:1009C8000AF9BB0120E58229F582E5833AF583D04F
:1009D800F0D0E0F8D0E0F9D0E0FAD0E0FBE8C0E0F1
:1009E800C0F00209915018E92582F8D083D082D04E
:1009F800E0F9D0E0FAD0E0FBC082C083020ADEBB97
:100A0800FE18E92582F8D083D082D0E0F9D0E0FA48
:100A1800D0E0FBC082C083020AF022D083D082F8E3
:100A2800E4937012740193700DA3A393F874019367
:100A3800F5828883E4737402936860EFA3A3A380AC
:100A4800DFD083D082F8E4937012740193700DA301
:100A5800A393F8740193F5828883E473740293B5C1
:100A6800F0067403936860E9A3A3A3A380D88A83DC
:100A78008982E473EC8EF0A4CCC5F0CCCDF8EFA459
:100A8800CEC5F02DFDE43CFCE8A42EC8C5F03DFD24
:100A9800E43CFCEFA4FFE5F028FEE43DFDE43CFC6B
:100AA80022EF4E6012EF60010EEDBB010B89828AC6
:100AB80083F0A3DFFCDEFA2289F05007F709DFFC98
:100AC800A9F022BBFEFCF309DFFCA9F022E6FB0833
:100AD800E6FA08E6F922EBF608EAF608E9F622E271
:100AE800FB08E2FA08E2F922EBF208EAF208E9F276
:100AF80022E493FB740193FA740293F922908EEC2A
:100B0800EEF0A3EFF0909047E0FEA3E08EF0120A1B
:100B1800490B2D00010E3F0002101200030CB60015
:100B280004000011E4909067E0FEA3E0FF908EEED1
:100B3800EEF0A3EFF0908EECE0FEA3E0C3940BEE92
:100B480094004003020C7F908EECE0A3E0640A4E10
:100B58007006908EECF0A3F0909035E0FEA3E09044
:100B6800901B75F02A120965EE75F02AA42583F505
:100B780083E0FEA3E0D3940FEE9427401A908EEE04
:100B8800E0FEA3E0FF7C277D10120658908EEEEC65
:100B9800F0A3EDF0020C57909035E0FEA3E09090A2
:100BA8001B75F02A120965EE75F02AA42583F583D2
:100BB800E0FEA3E0D394E7EE94034019908EEEE0B4
:100BC800FEA3E0FF7C037DE8120658908EEEECF061
:100BD800A3EDF0807A909035E0FEA3E090901B752D
:100BE800F02A120965EE75F02AA42583F583E0FE44
:100BF800A3E0D39463EE94004019908EEEE0FEA338
:100C0800E0FF7C007D64120658908EEEECF0A3EDB8
:100C1800F0803C909035E0FEA3E090901B75F02AA0
:100C2800120965EE75F02AA42583F583E0FEA3E09A
:100C3800D39409EE94004017908EEEE0FEA3E0FFF7
:100C48007C007D0A120658908EEEECF0A3EDF09031
:100C58008EEEE0FEA3E0FF7C007D0A120646908E31
:100C6800EEEEF0A3EFF0908EECE0FEA3E0FFA3EE33
:100C78008FF01206AD8017908EEEE0FEA3E0FF7CA9
:100C8800007D0A120658908EEEEEF0A3EFF0908EDB
:100C9800EEE0FEA3E0FF909067EEF0A3EFF09090F7
:100CA80067E0FCA3E0FD7F027E001265E9229090D8
:100CB8006DE0FEA3E0FF908EEEEEF0A3EFF0908ED5
:100CC800ECE0FEA3E0C3940BEE94004003020E0890
:100CD800908EECE0A3E0640A4E7006908EECF0A3D0
:100CE800F0909035E0FEA3E090901F75F02A12096D
:100CF80065EE75F02AA42583F583E0FEA3E0D3947E
:100D08000FEE9427401A908EEEE0FEA3E0FF7C27BA
:100D18007D10120658908EEEECF0A3EDF0020DE077
:100D2800909035E0FEA3E090901F75F02A120965B7
:100D3800EE75F02AA42583F583E0FEA3E0D394E7BB
:100D4800EE94034019908EEEE0FEA3E0FF7C037D55
:100D5800E8120658908EEEECF0A3EDF0807A9090B1
:100D680035E0FEA3E090901F75F02A120965EE7534
:100D7800F02AA42583F583E0FEA3E0D39463EE94E0
:100D8800004019908EEEE0FEA3E0FF7C007D641227
:100D98000658908EEEECF0A3EDF0803C909035E094
:100DA800FEA3E090901F75F02A120965EE75F02AEF
:100DB800A42583F583E0FEA3E0D39409EE940040D4
:100DC80017908EEEE0FEA3E0FF7C007D0A12065825
:100DD800908EEEECF0A3EDF0908EEEE0FEA3E0FF37
:100DE8007C007D0A120646908EEEEEF0A3EFF0909E
:100DF8008EECE0FEA3E0FFA3EE8FF01206AD8017A5
:100E0800908EEEE0FEA3E0FF7C007D0A120658906B
:100E18008EEEEEF0A3EFF0908EEEE0FEA3E0FF90F2
:100E2800906DEEF0A3EFF090906DE0FCA3E0FD7FF5
:100E3800027E0012599022909069E0FEA3E0FF9094
:100E48008EEEEEF0A3EFF0908EECE0FEA3E0C394FC
:100E58000BEE94004003020F30908EECE0A3E064A8
:100E68000A4E7006908EECF0A3F090906FE0FEA30F
:100E7800E064044E7018908EECE0FEA3E0FF7C0264
:100E88007D58120646A3EE8FF01206AD807B909037
:100E98006FE0FEA3E064034E7018908EECE0FEA3B2
:100EA800E0FF7C007D3C120646A3EE8FF01206ADF3
:100EB800805790906FE0FEA3E064024E7030908EF1
:100EC800ECE0FEA3E0D39405EE94004009908EEC8C
:100ED800E4F0A37405F0908EECE0FEA3E0FF7C0044
:100EE8007D0A120646A3EE8FF01206AD801B909085
:100EF8006FE0FEA3E064014E700F908EECE0FEA35D
:100F0800E0FFA3EE8FF01206AD90906FE0FEA3E035
:100F1800D39400EE94005003020FF290906F74FF88
:100F2800F5F01206AD020FF290906FE0FEA3E0C359
:100F38009404EE9400500A90906FE475F001120644
:100F4800AD90906FE0FEA3E064044E7009908EEEC1
:100F5800F0A3F0020FF290906FE0FEA3E064034E5E
:100F68007026908EEEE0FAA3E0FB908EEEE0FEA3F2
:100F7800E0FF7C027D58120658C3EB9DFFEA9C9067
:100F88008EEEF0A3EFF0806290906FE0FEA3E06435
:100F9800024E7026908EEEE0FAA3E0FB908EEEE013
:100FA800FEA3E0FF7C007D3C120658C3EB9DFFEAE0
:100FB8009C908EEEF0A3EFF0803090906FE0FEA34F
:100FC800E064014E7024908EEEE0FAA3E0FB908E70
:100FD800EEE0FEA3E0FF7C007D0A120658C3EB9DFD
:100FE800FFEA9C908EEEF0A3EFF0908EEEE0FEA369
:100FF800E0FF909069EEF0A3EFF0909069E0FCA319
:10100800E0FD7F027E001257192290906BE0FEA34C
:10101800E0FF908EEEEEF0A3EFF0908EECE0FEA3F2
:10102800E0C3940BEE94004003021103908EECE0B1
:10103800A3E0640A4E7006908EECF0A3F0909071D5
:10104800E0FEA3E064044E7018908EECE0FEA3E08E
:10105800FF7C027D58120646A3EE8FF01206AD8083
:101068007B909071E0FEA3E064034E7018908EECC4
:10107800E0FEA3E0FF7C007D3C120646A3EE8FF065
:101088001206AD8057909071E0FEA3E064024E70A6
:1010980030908EECE0FEA3E0D39405EE9400400976
:1010A800908EECE4F0A37405F0908EECE0FEA3E0E3
:1010B800FF7C007D0A120646A3EE8FF01206AD8073
:1010C8001B909071E0FEA3E064014E700F908EECCF
:1010D800E0FEA3E0FFA3EE8FF01206AD909071E062
:1010E800FEA3E0D39400EE940050030211C5909043
:1010F8007174FFF5F01206AD0211C5909071E0FE13
:10110800A3E0C39404EE9400500A909071E475F043
:10111800011206AD909071E0FEA3E064044E7009E0
:10112800908EEEF0A3F00211C5909071E0FEA3E05E
:1011380064034E7026908EEEE0FAA3E0FB908EEEEC
:10114800E0FEA3E0FF7C027D58120658C3EB9DFF2A
:10115800EA9C908EEEF0A3EFF08062909071E0FE32
:10116800A3E064024E7026908EEEE0FAA3E0FB90B6
:101178008EEEE0FEA3E0FF7C007D3C120658C3EB38
:101188009DFFEA9C908EEEF0A3EFF0803090907176
:10119800E0FEA3E064014E7024908EEEE0FAA3E036
:1011A800FB908EEEE0FEA3E0FF7C007D0A1206585D
:1011B800C3EB9DFFEA9C908EEEF0A3EFF0908EEECD
:1011C800E0FEA3E0FF90906BEEF0A3EFF090906B41
:1011D800E0FCA3E0FD7F027E001257ED22908EEF27
:1011E800EEF0A3EFF07B017A90792D908EF312093F
:1011F80091909047E0FEA3E064014E60030212BEA6
:10120800909035E0FEA3E090901B75F02A120965D6
:10121800EE75F02AA42583F583E0FEA3E0FF909005
:1012280067E0FCA3E0D39FEC9E4028909035E0FE59
:10123800A3E090901B75F02A120965EE75F02AA4B8
:101248002583F583E0FEA3E0FF909067EEF0A3EF1F
:10125800F08051909035E0FEA3E090901975F02A47
:10126800120965EE75F02AA42583F583E0FEA3E054
:10127800FF909067E0FCA3E0C39FEC9E50269090FF
:1012880035E0FEA3E090901975F02A120965EE7515
:10129800F02AA42583F583E0FEA3E0FF909067EE93
:1012A800F0A3EFF0909067E0FCA3E0FD7F027E00E2
:1012B8001265E902150A909047E0FEA3E064044E27
:1012C8006003021383909035E0FEA3E090901F75B1
:1012D800F02A120965EE75F02AA42583F583E0FE4D
:1012E800A3E0FF90906DE0FCA3E0D39FEC9E402824
:1012F800909035E0FEA3E090901F75F02A120965E2
:10130800EE75F02AA42583F583E0FEA3E0FF909014
:101318006DEEF0A3EFF08051909035E0FEA3E090E1
:10132800901D75F02A120965EE75F02AA42583F53B
:1013380083E0FEA3E0FF90906DE0FCA3E0C39FEC88
:101348009E5026909035E0FEA3E090901D75F02AFF
:10135800120965EE75F02AA42583F583E0FEA3E063
:10136800FF90906DEEF0A3EFF090906DE0FCA3E09D
:10137800FD7F027E0012599002150A909047E0FE08
:10138800A3E064024E6003021448909035E0FEA387
:10139800E090902375F02A120965EE75F02AA425CD
:1013A80083F583E0FEA3E0FF909069E0FCA3E0D31F
:1013B8009FEC9E4028909035E0FEA3E09090237526
:1013C800F02A120965EE75F02AA42583F583E0FE5C
:1013D800A3E0FF909069EEF0A3EFF0805190903574
:1013E800E0FEA3E090902175F02A120965EE75F0F1
:1013F8002AA42583F583E0FEA3E0FF909069E0FC32
:10140800A3E0C39FEC9E5026909035E0FEA3E090A9
:10141800902175F02A120965EE75F02AA42583F546
:1014280083E0FEA3E0FF909069EEF0A3EFF09090C8
:1014380069E0FCA3E0FD7F027E0012571902150A3D
:10144800909047E0FEA3E064034E600302150A9003
:101458009035E0FEA3E090902775F02A120965EE1A
:1014680075F02AA42583F583E0FEA3E0FF90906B36
:10147800E0FCA3E0D39FEC9E4028909035E0FEA3CB
:10148800E090902775F02A120965EE75F02AA425D8
:1014980083F583E0FEA3E0FF90906BEEF0A3EFF0FE
:1014A8008051909035E0FEA3E090902575F02A12C7
:1014B8000965EE75F02AA42583F583E0FEA3E0FF15
:1014C80090906BE0FCA3E0C39FEC9E502690903573
:1014D800E0FEA3E090902575F02A120965EE75F0FC
:1014E8002AA42583F583E0FEA3E0FF90906BEEF03D
:1014F800A3EFF090906BE0FCA3E0FD7F027E00126A
:1015080057ED908EEFE0FEA3E08EF0120A49153EEB
:101518000001156F000215BF0003160F0004163FE7
:10152800040016FB0800167F1000174114001771FD
:101538001C0000001778909095E4F0A304F0E4A351
:10154800F0A3F0A3F0A3F0A3F0A3F0908EEFE0FED9
:10155800A3E0FF123624908EEFE0FEA3E0FF909008
:1015680047EEF0A3EFF022E4909095F0A3F0A3F0FB
:10157800A304F0E4A3F0A3F0A3F0A3F0908EEFE0AF
:10158800FEA3E0FF123624908EEFE0FEA3E0FF906A
:101598009047EEF0A3EFF090906FE4F0A37404F09E
:1015A800E4909069F0A3F0909069E0FCA3E0FD7FDF
:1015B800027E0012571922E4909095F0A3F0A3F050
:1015C800A3F0A3F0A304F0E4A3F0A3F0908EEFE05F
:1015D800FEA3E0FF123624908EEFE0FEA3E0FF901A
:1015E8009047EEF0A3EFF0909071E4F0A37404F04C
:1015F800E490906BF0A3F090906BE0FCA3E0FD7F8B
:10160800027E001257ED22E4909095F0A3F0A3F02B
:10161800A3F0A3F0A3F0A3F0A304F0908EEFE0FEF4
:10162800A3E0FF123624908EEFE0FEA3E0FF909037
:1016380047EEF0A3EFF022909085E0FEA3E04E7015
:101648001A7B017A90795F78677C907D01FE7F082C
:101658001205A67F0B7E001244FE22E4908EF1F064
:10166800A3F07B017A8E79F1908F18F0A304F07FB4
:10167800107E11124BCE22E4909095F0A3F0A3F0C7
:10168800A3F0A3F0A3F0A3F0A3F07B017A907995DF
:10169800908F18F0A37404F07F057E25124BCE7B43
:1016A800017A907995908F18E4F0A37404F07F0A7A
:1016B8007E25124BCEE4908EF1F0A3F07B017A8E5A
:1016C80079F1908F18F0A304F07F107E11124BCEA1
:1016D8007B017A8E79F1908F18E4F0A304F07F12E1
:1016E8007E11124BCEE4909047F0A3F07F09FE12D2
:1016F80044FE22E4909095F0A3F0A3F0A3F0A3F0A9
:10170800A3F0A3F0A3F07B017A907995908F18F05D
:10171800A37404F07F057E25124BCE7B017A907965
:1017280095908F18E4F0A37404F07F0A7E25124B7D
:10173800CE7F0C7E001244FE227B017A9079677876
:101748005F7C907D017E007F081205A67B017A9060
:10175800795F908EFBE4F0A37404F0E4FFFE125E60
:10176800877F0B7E001244FE227F0B7E001244FE10
:1017780022908EEFEEF0A3EFF07B017A90792D9016
:101788008EF3120991909045E0FEA3E064014E604B
:101798000A909043E0FEA3E04E6031E4908EF1F0B1
:1017A800A3F07B017A8E79F1908F18F0A304F07F73
:1017B800107E11124BCE7B017A8E79F1908F18E44E
:1017C800F0A304F07F127E11124BCE22909047E0D6
:1017D800FEA3E064014E6003021899909035E0FE84
:1017E800A3E090901B75F02A120965EE75F02AA403
:1017F8002583F583E0FEA3E0FF909067E0FCA3E07B
:10180800D39FEC9E4028909035E0FEA3E090901B7B
:1018180075F02A120965EE75F02AA42583F583E090
:10182800FEA3E0FF909067EEF0A3EFF08051909058
:1018380035E0FEA3E090901975F02A120965EE755F
:10184800F02AA42583F583E0FEA3E0FF909067E0EB
:10185800FCA3E0C39FEC9E5026909035E0FEA3E0E9
:1018680090901975F02A120965EE75F02AA425835F
:10187800F583E0FEA3E0FF909067EEF0A3EFF09011
:101888009067E0FCA3E0FD7F027E001265E9021A82
:10189800E5909047E0FEA3E064044E600302195E01
:1018A800909035E0FEA3E090901F75F02A1209652C
:1018B800EE75F02AA42583F583E0FEA3E0FF90905F
:1018C8006DE0FCA3E0D39FEC9E4028909035E0FEAD
:1018D800A3E090901F75F02A120965EE75F02AA40E
:1018E8002583F583E0FEA3E0FF90906DEEF0A3EF73
:1018F800F08051909035E0FEA3E090901D75F02A9D
:10190800120965EE75F02AA42583F583E0FEA3E0AD
:10191800FF90906DE0FCA3E0C39FEC9E5026909052
:1019280035E0FEA3E090901D75F02A120965EE756A
:10193800F02AA42583F583E0FEA3E0FF90906DEEE6
:10194800F0A3EFF090906DE0FCA3E0FD7F027E0035
:10195800125990021AE5909047E0FEA3E064024E07
:101968006003021A23909035E0FEA3E0909023755F
:10197800F02A120965EE75F02AA42583F583E0FEA6
:10198800A3E0FF909069E0FCA3E0D39FEC9E402881
:10199800909035E0FEA3E090902375F02A12096537
:1019A800EE75F02AA42583F583E0FEA3E0FF90906E
:1019B80069EEF0A3EFF08051909035E0FEA3E0903F
:1019C800902175F02A120965EE75F02AA42583F591
:1019D80083E0FEA3E0FF909069E0FCA3E0C39FECE6
:1019E8009E5026909035E0FEA3E090902175F02A55
:1019F800120965EE75F02AA42583F583E0FEA3E0BD
:101A0800FF909069EEF0A3EFF0909069E0FCA3E0FE
:101A1800FD7F027E00125719021AE5909047E0FEFA
:101A2800A3E064034E6003021AE5909035E0FEA33C
:101A3800E090902775F02A120965EE75F02AA42522
:101A480083F583E0FEA3E0FF90906BE0FCA3E0D376
:101A58009FEC9E4028909035E0FEA3E0909027757B
:101A6800F02A120965EE75F02AA42583F583E0FEB5
:101A7800A3E0FF90906BEEF0A3EFF08051909035CB
:101A8800E0FEA3E090902575F02A120965EE75F046
:101A98002AA42583F583E0FEA3E0FF90906BE0FC89
:101AA800A3E0C39FEC9E5026909035E0FEA3E09003
:101AB800902575F02A120965EE75F02AA42583F59C
:101AC80083E0FEA3E0FF90906BEEF0A3EFF0909020
:101AD8006BE0FCA3E0FD7F027E001257ED908EEFD5
:101AE800E0FEA3E08EF0120A491B0D04001BC1089A
:101AF800001C3F0C001B6410001C0714001C371C42
:101B08000000001CE3909037E0FEA3E04E700790C1
:101B18009037F0A304F07B017A907937908F18E41E
:101B2800F0A37402F07F477E20124BCE7B017A909F
:101B3800795F78677C907D017E007F081205A67B1F
:101B4800017A907973908EFBE4F0A37404F0E4FFBB
:101B5800FE1226387F0D7E001244FE22E4909095F6
:101B6800F0A3F0A3F0A3F0A3F0A3F0A3F0A3F07BFD
:101B7800017A907995908F18F0A37404F07F057E10
:101B880025124BCE7B017A907995908F18E4F0A3BB
:101B98007404F07F0A7E25124BCEE4909047F0A3A0
:101BA800F0909085E0FEA3E04E7006909037F0A389
:101BB800F07F097E001244FE22E4909095F0A3F095
:101BC800A3F0A3F0A3F0A3F0A3F0A3F07B017A9015
:101BD8007995908F18F0A37404F07F057E25124B39
:101BE800CE7B017A907995908F18E4F0A37404F075
:101BF8007F0A7E25124BCE7F0E7E001244FE227B8A
:101C0800017A90796778737C907D017E007F081255
:101C180005A67B017A907973908EFBE4F0A3740497
:101C2800F0E4FFFE125E877F0D7E001244FE227FE5
:101C38000D7E001244FE22909085E4F0A304F090FB
:101C48009085E0FEA3E0FF1261507B017A9079371E
:101C5800908F11E4F0A37402F07F057E007D007C74
:101C680000125B177B017A907937908F18E4F0A304
:101C780004F07F0A7E20124BCE7B017A907973782C
:101C8800677C907D017E007F081205A67B017A9013
:101C98007973785F7C907D017E007F081205A6909D
:101CA8009067E0FCA3E0FD7F027E001265E990905A
:101CB8006DE0FCA3E0FD7F027E00125990909069D0
:101CC800E0FCA3E0FD7F027E0012571990906BE0C4
:101CD800FCA3E0FD7F027E001257ED22908EF3EE0A
:101CE800F0A3EFF0A3ECF0A3EDF07B017A90792D4F
:101CF800908F0712099190908DE4F0A304F07A90E8
:101D0800798D908F18E4F0A37402F07F5C7E2A121C
:101D18004BCE90908DE0FEA3E0FF908EF3E0FCA305
:101D2800E0D39FEC9E500A908EF3E0FEA3E04E7045
:101D3800037F01227B017A8E79F3908F18E4F0A358
:101D48007402F07F5A7E2A124BCE908EF5E0FEA3E5
:101D5800E064014E6003021E717B017A8E79FB906C
:101D68008F18F0A37402F0FF7E13125460908EFB5C
:101D7800E0FEA3E064014E7008908EFBF0A3F080B3
:101D88005E908EFBE0FEA3E064024E7009908EFB2D
:101D9800F0A304F08049908EFBE0FEA3E064044EBB
:101DA800700A908EFBF0A37402F08033908EFBE0F3
:101DB800FEA3E064084E700A908EFBF0A37403F053
:101DC800801D908EFBE0FEA3E064104E700A908E9A
:101DD800FBF0A37404F08007E4908EFBF0A3F0906E
:101DE8008EF3E0FEA3E024FFFFEE34FFFE7C007DCF
:101DF80005120646908EFBE0FCA3E02FFFEE3C9018
:101E08008EFBF0A3EFF0908EFBE0FEA3E0C39401FD
:101E1800EE940040037F0122908EFBE0FEA3E0FFDA
:101E2800909035EEF0A3EFF07B017A907935908FA2
:101E380011E4F0A37402F07F047E007D007C0012A0
:101E48005B17908F03120934000000007B017A8F22
:101E58007903908F11E4F0A37402F07F727E017D04
:101E6800007C00125B177F0022908EF3E0FEA3E057
:101E7800FF908EFFEEF0A3EFF0908EF3E0A3E090DA
:101E88008F01EEF0A3EFF0908EFFE0FEA3E024FFB9
:101E9800FFEE34FFFE7C007D05120646908EFFEEB5
:101EA800F0A3EFF0A3E0FEA3E0FF120646908F0137
:101EB800EEF0A3EFF0908F01E0FEA3E0FF909035E5
:101EC800E0FCA3E0C39FEC9E5051908EFFE0FEA380
:101ED800E0FF909035E0A3E0C39FEC9E403D9090DA
:101EE80035E0FEA3E0FF7C001206587E007401A8CE
:101EF80005088005C333CE33CED8F9FF908EF9EEAE
:101F0800F0A3EFF07B017A8E79F9908F18E4F0A3B3
:101F18007402F0FF7E13124BCE801BE4908EF9F012
:101F2800A3F07B017A8E79F9908F18F0A37402F0F0
:101F3800FF7E13124BCE908EF3E0FEA3E0FF908E4F
:101F4800F7EEF0A3EFF0908EF7E0FEA3E024FFFF9A
:101F5800EE34FFFE7C007D05120646908EF7EEF00B
:101F6800A3EFF0E4908EFDF0A3F0908EFDE0FEA3C9
:101F7800E0C39405EE94004003022202908EFDE037
:101F8800A3E025E0FFEE33FEE42FFFEE342AFE7BCC
:101F9800017A8E79F7908F18E4F0A37402F0124B4F
:101FA800CE908EF7E0FEA3E0C39401EE94004003C8
:101FB8000220D9908EF7E0A3E0FF7C007D2A12066C
:101FC8004674192FF974903EFA7B01908EFDE0FE5D
:101FD800A3E025E0FFEE33FEEF240AFFEE342AFEED
:101FE800908F18E4F0A37402F0124BCE908EF7E0B5
:101FF800FEA3E0FF7C007D2A120646741B2FF974AD
:10200800903EFA7B01908EFDE0FEA3E025E0FFEE16
:1020180033FEEF2414FFEE342AFE908F18E4F0A369
:102028007402F0124BCE908EF7E0FEA3E0FF7C0026
:102038007D2A12064674292FF974903EFA7B019086
:102048008EFDE0FEA3E025E0FFEE33FEEF2428FF3F
:10205800EE342AFE908F18E4F0A37402F0124BCEEF
:10206800908EF7E0FEA3E0FF7C007D2A12064674FE
:102078002B2FF974903EFA7B01908EFDE0FEA3E0D1
:1020880025E0FFEE33FEEF2432FFEE342AFE908F78
:1020980018E4F0A37402F0124BCE908EF7E0FEA382
:1020A800E0FF7C007D2A12064674052FF974903EE5
:1020B800FA7B01908EFDE0A3E0FEE42400FFEE34FD
:1020C8002BFE908F18E4F0A37414F0124BCE02216B
:1020D800EBE4908EF9F0A3F0908EFDE0FEA3E025EE
:1020E800E0FFEE33FEEF240AFFEE342AFE7B017A8E
:1020F8008E79F9908F18E4F0A37402F0124BCE9009
:102108008EFDE0FEA3E025E0FFEE33FEEF2414FF92
:10211800EE342AFE7B017A8E79F9908F18E4F0A3C9
:102128007402F0124BCE908EFDE0FEA3E025E0FF96
:10213800EE33FEEF241EFFEE342AFE7B017A8E7901
:10214800F9908F18E4F0A37402F0124BCE908EFD34
:10215800E0FEA3E025E0FFEE33FEEF2428FFEE3497
:102168002AFE7B017A8E79F9908F18E4F0A3740225
:10217800F0124BCE908EFDE0FEA3E025E0FFEE339B
:10218800FEEF2432FFEE342AFE7B017A8E79F99035
:102198008F18E4F0A37402F0124BCE908EFDE0FE8F
:1021A800A3E025E0FFEE33FEEF2450FFEE342AFED5
:1021B8007B017A8E79F9908F18E4F0A37402F012FB
:1021C8004BCE908EFDE0A3E0FEE42400FFEE342B1E
:1021D800FE7BFF7A6F7940908F18E4F0A37402F0C9
:1021E800124BCE908EF7E475F0011206AD908EFD7D
:1021F800E475F0011206AD021F727F0022908EEC8A
:10220800EEF0A3EFF0909049E0FEA3E08EF0120A02
:1022180049222D000B2330000C2433000D253700F4
:102228000E0000263790905DE0FEA3E0FF908EEE52
:10223800EEF0A3EFF0908EECE0FEA3E0C3940BEE7B
:102248009400504E908EECE0A3E0640A4E70069025
:102258008EECF0A3F0908EEEE0FEA3E0FF7C037D11
:10226800E8120658908EEEECF0A3EDF0908EEEE0BA
:10227800FEA3E0FF7C007D0A120646908EEEEEF08B
:10228800A3EFF0908EECE0FEA3E0FFA3EE8FF01238
:1022980006AD908EECE0FEA3E0640B4E7015A3E053
:1022A800FEA3E0FF7C007D0A120658908EEEEEF049
:1022B800A3EFF0908EEEE0FEA3E0FF90905DEEF0CD
:1022C800A3EFF07B017A8E79EE908F18E4F0A304E7
:1022D800F07F617E20124BCE908EECE0FEA3E0648E
:1022E8000C4E6003022637A3E0FEA3E0FF90905D4A
:1022F800EEF0A3EFF090905DE0FEA3E0FF90905326
:10230800EEF0A3EFF0E4909049F0A3F07B017A8E11
:1023180079EE908F18F0A304F07F807E20124BCEC8
:102328007F027E001244FE2290905DE0FEA3E0FF53
:10233800908EEEEEF0A3EFF0908EECE0FEA3E0C3FB
:10234800940BEE9400504E908EECE0A3E0640A4E9D
:102358007006908EECF0A3F0908EEEE0FEA3E0FF06
:102368007C037DE8120658908EEEECF0A3EDF09019
:102378008EEEE0FEA3E0FF7C007D0A120646908EFA
:10238800EEEEF0A3EFF0908EECE0FEA3E0FFA3EEFC
:102398008FF01206AD908EECE0FEA3E0640B4E7059
:1023A80015A3E0FEA3E0FF7C007D0A120658908E7C
:1023B800EEEEF0A3EFF0908EEEE0FEA3E0FF90903B
:1023C8005DEEF0A3EFF07B017A8E79EE908F18E442
:1023D800F0A304F07F617E20124BCE908EECE0FEDD
:1023E800A3E0640C4E6003022637A3E0FEA3E0FFDF
:1023F80090905DEEF0A3EFF090905DE0FEA3E0FF1B
:10240800909055EEF0A3EFF0E4909049F0A3F07BA4
:10241800017A8E79EE908F18F0A304F07F817E20E8
:10242800124BCE7F027E001244FE2290905DE0FEA9
:10243800A3E0FF908EEEEEF0A3EFF0908EECE0FEBE
:10244800A3E0C3940BEE9400504E908EECE0A3E012
:10245800640A4E7006908EECF0A3F0908EEEE0FECB
:10246800A3E0FF7C037DE8120658908EEEECF0A303
:10247800EDF0908EEEE0FEA3E0FF7C007D0A1206F0
:1024880046908EEEEEF0A3EFF0908EECE0FEA3E027
:10249800FFA3EE8FF01206AD908EECE0FEA3E06491
:1024A8000B4E7015A3E0FEA3E0FF7C007D0A120628
:1024B80058908EEEEEF0A3EFF0908EEEE0FEA3E0E3
:1024C800FF90905DEEF0A3EFF07B017A8E79EE90AD
:1024D8008F18E4F0A37402F07F617E20124BCE9037
:1024E8008EECE0FEA3E0640C4E6003022637A3E006
:1024F800FEA3E0FF90905DEEF0A3EFF090905DE01A
:10250800FEA3E0FF909057EEF0A3EFF0E49090491F
:10251800F0A3F07B017A8E79EE908F18F0A304F087
:102528007F827E20124BCE7F027E001244FE2290D4
:10253800905DE0FEA3E0FF908EEEEEF0A3EFF0904A
:102548008EECE0FEA3E0C3940BEE9400504E908E08
:10255800ECE0A3E0640A4E7006908EECF0A3F090D5
:102568008EEEE0FEA3E0FF7C277D10120658908EC9
:10257800EEECF0A3EDF0908EEEE0FEA3E0FF7C0021
:102588007D0A120646908EEEEEF0A3EFF0908EECE8
:10259800E0FEA3E0FFA3EE8FF01206AD908EECE014
:1025A800FEA3E0640B4E7015A3E0FEA3E0FF7C00E1
:1025B8007D0A120658908EEEEEF0A3EFF0908EEEA4
:1025C800E0FEA3E0FF90905DEEF0A3EFF07B017AD0
:1025D8008E79EE908F18E4F0A37402F07F617E206C
:1025E800124BCE908EECE0FEA3E0640C4E7040A33C
:1025F800E0FEA3E0FF90905DEEF0A3EFF090905D19
:10260800E0FEA3E0FF909059EEF0A3EFF0E4909085
:1026180049F0A3F07B017A8E79EE908F18F0A3042D
:10262800F07F837E20124BCE7F027E001244FE2272
:10263800908EF6EEF0A3EFF0A31209917B017A9049
:10264800792D908F01120991909037E0FEA3E0D385
:102658009400EE9400402E909037E0A3E0C4F85424
:102668000FC868FFEEC454F048FEEF2410FFE43EA4
:10267800FE908EF6E0FCA3E02FFFEE3C908EFDF07E
:10268800A3EFF08013908EF6E0FEA3E02410FFE4A1
:102698003E908EFDF0A3EFF0908EFDE0FEA3E0FFEC
:1026A800E4FCFDC006C007908EF8120971908EFBFD
:1026B800E0FEA3E0FF908F0BEEF0A3EFF0D007D081
:1026C80006125BCFE4908EFFF0A3F0908EFBE0FE45
:1026D800A3E0FF908EFFE0FCA3E0C39FEC9E4003C5
:1026E8000229CC908EFFE0FEA3E0FF908EF6E0FC7E
:1026F800A3E02FFFEC3E908EFDF0A3EFF0908EFD4F
:10270800E0FEA3E08EF0120A492725000027CD003D
:102718000128750002291D0003000029BF9090358B
:10272800E0FEA3E090901B75F02A120965EE75F0A3
:102738002AA42583F583E0FEA3E0FF909073E0FCD4
:10274800A3E0D39FEC9E4026909035E0FEA3E09056
:10275800901975F02A120965EE75F02AA42583F5FB
:1027680083E0FEA3E0FF909073EEF0A3EFF090906B
:1027780035E0FEA3E090901975F02A120965EE7510
:10278800F02AA42583F583E0FEA3E0FF909073E090
:10279800FCA3E0C39FEC9E40030229BF909035E064
:1027A800FEA3E090901975F02A120965EE75F02ADB
:1027B800A42583F583E0FEA3E0FF909073EEF0A3D9
:1027C800EFF00229BF909035E0FEA3E090901F75CE
:1027D800F02A120965EE75F02AA42583F583E0FE38
:1027E800A3E0FF909079E0FCA3E0D39FEC9E402605
:1027F800909035E0FEA3E090901D75F02A120965CF
:10280800EE75F02AA42583F583E0FEA3E0FF9090FF
:1028180079EEF0A3EFF0909035E0FEA3E090901DE4
:1028280075F02A120965EE75F02AA42583F583E070
:10283800FEA3E0FF909079E0FCA3E0C39FEC9E40EC
:10284800030229BF909035E0FEA3E090901D75F03B
:102858002A120965EE75F02AA42583F583E0FEA304
:10286800E0FF909079EEF0A3EFF00229BF90903549
:10287800E0FEA3E090902375F02A120965EE75F04A
:102888002AA42583F583E0FEA3E0FF909075E0FC81
:10289800A3E0D39FEC9E4026909035E0FEA3E09005
:1028A800902175F02A120965EE75F02AA42583F5A2
:1028B80083E0FEA3E0FF909075EEF0A3EFF0909018
:1028C80035E0FEA3E090902175F02A120965EE75B7
:1028D800F02AA42583F583E0FEA3E0FF909075E03D
:1028E800FCA3E0C39FEC9E40030229BF909035E013
:1028F800FEA3E090902175F02A120965EE75F02A82
:10290800A42583F583E0FEA3E0FF909075EEF0A385
:10291800EFF00229BF909035E0FEA3E09090277574
:10292800F02A120965EE75F02AA42583F583E0FEE6
:10293800A3E0FF909077E0FCA3E0D39FEC9E4026B5
:10294800909035E0FEA3E090902575F02A12096575
:10295800EE75F02AA42583F583E0FEA3E0FF9090AE
:1029680077EEF0A3EFF0909035E0FEA3E09090258D
:1029780075F02A120965EE75F02AA42583F583E01F
:10298800FEA3E0FF909077E0FCA3E0C39FEC9E508D
:1029980026909035E0FEA3E090902575F02A120964
:1029A80065EE75F02AA42583F583E0FEA3E0FF9089
:1029B8009077EEF0A3EFF0908EFFE475F001120629
:1029C800AD0226D322908EECEEF0A3EFF07B017AD5
:1029D80090792D908EF0120991E4909049F0A3F02F
:1029E800908EECE0FEA3E08EF0120A492A24000142
:1029F8002A4E00022A7800032AD600042B7D0005FF
:102A08002B8700062BE200082C8D000B2C8D000C68
:102A18002C8D000D2C8D000E00002CAF90908BE0BB
:102A2800FEA3E0D39401EE9400400A90908B74FFCB
:102A3800F5F01206AD90908BE0FEA3E0FFE4FDFCFC
:102A4800121CE4022CAF90908BE0FEA3E0C394012B
:102A5800EE9400500A90908BE475F0011206AD9048
:102A6800908BE0FEA3E0FFE4FDFC121CE4022CAF17
:102A78007B017A907953908F18E4F0A304F07F805B
:102A88007E20124BCE7B017A907955908F18E4F016
:102A9800A304F07F817E20124BCE7B017A90795778
:102AA800908F18E4F0A304F07F827E20124BCE7B37
:102AB800017A907959908F18E4F0A304F07F837E0F
:102AC80020124BCE7F027E001244FE022CAF909063
:102AD8008BE0FEA3E0FF7D017C00121CE4908EEEEB
:102AE800E4F0A3EFF0908EEEE0FEA3E04E60030268
:102AF8002CAF7F02FE1244FE909035E0FEA3E0FF6B
:102B08007C007D2A12064674292FF974903EFA7BC0
:102B18000178537C907D017E007F041205A67B011D
:102B28007A907953908F18E4F0A304F07F807E2088
:102B3800124BCE7B017A907955908F18E4F0A3045C
:102B4800F07F817E20124BCE7B017A907957908F4F
:102B580018E4F0A304F07F827E20124BCE7B017A2A
:102B6800907959908F18E4F0A304F07F837E2012A7
:102B78004BCE022CAF7F077E001244FE022CAF7FA3
:102B8800077E001244FE74FF90905BF0A3F07B0177
:102B98007A907953908F11E4F0A37406F07F707ED9
:102BA800017D007C00125B177B017A907953C0018C
:102BB800909035E0FEA3E0FF7C007D2A1206467463
:102BC800292FF974903EA801FC7D01D0017E007F79
:102BD800041205A6124CEB022CAF90902DE0FEA338
:102BE800E0FFC374049FFFE49E90902DF0A3EFF0E4
:102BF80090902DE0FEA3E0D39400EE94004009905D
:102C0800902DE4F0A37404F07B017A90792D908FD5
:102C180018E4F0A304F07F007E21124BCE7B017AEA
:102C280090792D908F11E4F0A37402F07F007E005C
:102C38007D007C00125B1790902DE0FEA3E06404F9
:102C48004E70177BFF7A6F794E908F18F0A3740B34
:102C5800F07F007E30124BCE804D909035E0FEA381
:102C6800E0FF7C007D2A12064674052FF974903E19
:102C7800FA7B01908F18E4F0A37414F07F007E3083
:102C8800124BCE8022E490905DF0A3F07B017A9005
:102C9800795D908F18F0A304F07F617E20124BCEEF
:102CA8007F037E001244FE908EECE0FEA3E0FF90CE
:102CB8009049EEF0A3EFF022908EE1120991908EE8
:102CC800E11209711206D9FFAEF0908EE112097176
:102CD800E92402F9E43AFA908F18E4F0A304F01218
:102CE8005460908EE11209719000081205E5120AED
:102CF800232D06002D7B012E240200002F4E908EDE
:102D0800E112097190000212070445F07003022FC6
:102D18004E908EE11209711206D9FFAEF0908EE145
:102D2800120971900002120704FDACF0908EE112B6
:102D3800097190000912099A89828A83120A7A9085
:102D48008EE1120971900002E4F5F01207A8908E46
:102D5800E11209711206D9FFAEF0908EE1120971E5
:102D6800E92402F9E43AFA908F18E4F0A304F01287
:102D78004BCE22908EE1120971900004120704FFD5
:102D8800AEF0908EE11209719000021207046F7084
:102D980003E5F06E7003022F4E908EE11209711256
:102DA80006D9FFAEF0908EE1120971900002120769
:102DB80004FDACF0908EE112097190000912099A95
:102DC80089828A83120A7A908EE112097190000230
:102DD800120704FF908EE1120971900004E5F08F4C
:102DE800F01207A8908EE4E4F0A304F0FB7A8E7941
:102DF800E4908F18E4F0A304F07F507E11124BCEBC
:102E0800E4908EE4F0A3F07B017A8E79E4908F1839
:102E1800F0A304F07F527E11124BCE22908EE11265
:102E2800097190000212070445F07003022F2290E6
:102E38008EE1120971900006120704C3940AE5F0A6
:102E480094005051908EE112097190000412070409
:102E5800FFAEF0908EE11209719000021207046F24
:102E68007003E5F06E602E908EE11209711206D99A
:102E7800FFAEF0908EE1120971900002120704FD76
:102E8800ACF0908EE112097190000912099A8982BA
:102E98008A83120A7A908EE112097190000612074D
:102EA80004641445F07061908EE11209711206D91C
:102EB800FFAEF0908EE1120971900002120704FD36
:102EC800ACF0908EE112097190000C12099A898277
:102ED8008A83120A7A908EE1120971900002E4F551
:102EE800F01207A8908EE11209711206D9FFAEF010
:102EF800908EE1120971E92402F9E43AFA908F18E8
:102F0800E4F0A304F0124BCE908EE1120971900008
:102F180006E475F00112073C800F908EE1120971EA
:102F2800900006E4F5F01207A8908EE1120971905E
:102F38000002120704FF908EE1120971900004E567
:102F4800F08FF01207A822908FE1EFF0A3120991F9
:102F5800E4781DF608F6908952E0120A232F7E00C5
:102F68002FB90130580230860330BA0430DB0531FE
:102F78008D06000031AD908FE1E0B4031DFF90890C
:102F880053E0FE04F074522EF582E43488F583EFA2
:102F9800F0908952E004F00231C1E4908952F0A324
:102FA800F07E01FFFD7B017A887952120AA902316D
:102FB800C1908FE1E0120A232FD0032FF106301DB4
:102FC80010301D830000303E908FE1E0FF90895360
:102FD800E0FE04F074522EF582E43488F583EFF0B5
:102FE800908952E004F00231C1908FE1E0FF9089AE
:102FF80053E0FE04F074522EF582E43488F583EF32
:10300800F09089557404F0E4908954F090895274D2
:1030180003F00231C1908FE1E0FF908953E0FE0494
:10302800F074522EF582E43488F583EFF0908952DB
:103038007406F00231C1E4908952F0A3F07E01FFDA
:10304800FD7B017A887952120AA90231C10231C185
:10305800908FE1E0FF908953E0FE04F074522EF562
:1030680082E43488F583EFF0908FE1E0908955F0A1
:10307800E4908954F0908952E004F00231C1908FB5
:10308800E1E0FF908953E0FE04F074522EF582E4EB
:103098003488F583EFF0908954E004F0A3E0FF90C2
:1030A8008954E06F60030231C1908952E004F00254
:1030B80031C1908FE1E0FF908953E0FE04F0745233
:1030C8002EF582E43488F583EFF0908952E004F01D
:1030D8000231C1908FE1E0FF908953E0FE04F07463
:1030E800522EF582E43488F583EFF0908953E0247A
:1030F80051F582E43488F583E0FE908953E024504A
:10310800F582E43488F583E07C002400FFEC3E7807
:103118001DF608A6077B017A887952908953E02426
:10312800FEFD126AD8781DE6FC08E66F7002EE6CA8
:10313800703D7B017A887952C003C002C001908932
:1031480053E024FEFD908FE212097189828A83D0B0
:1031580001D002D003120A7AE4908952F0A3F07EDB
:1031680001FFFD7B017A887952120AA97F0122E4C6
:10317800908952F0A3F07E01FFFD7B017A88795295
:10318800120AA98034908FE1E0FF908953E0FE0491
:10319800F074522EF582E43488F583EFF09089526A
:1031A8007404F08014E4908952F0A3F07E01FFFDCE
:1031B8007B017A887952120AA97F0022908EECEE60
:1031C800F0A3EFF0909089E0FEA3E0FF908EEEEE82
:1031D800F0A3EFF0908EECE0FEA3E0640C4E6003E9
:1031E800023282909039F0A3F0A3F0A3F07B017A29
:1031F800907939908F11F0A37402F07F067E007DDC
:10320800007C00125B17909039E0FEA3E0FFE4FC1D
:10321800FD90903D12092890903D120910781012E7
:1032280008FD90903D12092890903D12091C90903D
:103238003BE0FEA3E0FFE4FCFD1208BEA312092850
:10324800E47B107A0EF9F890903D12091012082CC0
:10325800909041EEF0A3EFF07B017A907941908F46
:1032680018E4F0A304F07F627E20124BCEE4909025
:1032780089F0A3F07F07FE1244FE908EECE0FEA3D7
:10328800E0640D4E70067F07FE1244FE908EECE05F
:10329800FEA3E0C3940BEE9400400302334B908EE0
:1032A800ECE0A3E0640A4E7006908EECF0A3F09078
:1032B8008EEEE0FEA3E0FF7C037DE8120658908EB8
:1032C800EEECF0A3EDF0908EEEE0FEA3E0FF7C00C4
:1032D8007D0A120646908EEEEEF0A3EFF0908EEC8B
:1032E800E0FEA3E0FFA3EE8FF01206AD908EEEE0B5
:1032F800FEA3E0D3940FEE9427400C908EEE742733
:10330800F0A3740FF08014908EEEE0FEA3E0C3EEFD
:1033180094005007E4908EEEF0A3F0908EEEE0FE5D
:10332800A3E0FF909089EEF0A3EFF07B017A90790B
:1033380089908F18E4F0A37402F07F607E20124B0E
:10334800CE8051908EEEE0FEA3E0FF7C007D0A1255
:103358000658908EEEEEF0A3EFF0908EEEE0FEA30E
:10336800E0C3EE94005007E4908EEEF0A3F0908E48
:10337800EEE0FEA3E0FF909089EEF0A3EFF07B0172
:103388007A907989908F18E4F0A37402F07F607EB8
:1033980020124BCE908EEEE0FEA3E0B4F228EEB4FD
:1033A8000324E4909089F0A3F07B017A90798990C6
:1033B8008F18F0A37402F07F607E20124BCE7F0836
:1033C8007E001244FE22908EEEE0FEA3E0B4553D4E
:1033D800EEB4173990908BE4F0A304F090908BE052
:1033E800FEA3E0FFE4FDFC121CE47F017E00124412
:1033F800FEE4909089F0A3F07B017A907989908F10
:1034080018F0A37402F07F607E20124BCE22908EBB
:10341800E0EEF0A3EFF0A3ECF0A3EDF0A312099116
:10342800E4908EE7F0908EE9F0A3F0A3F0A3F0A368
:10343800F07BFF7A6E799078EE7C8E7D01FE7F803E
:103448001205A6908EE0E0FEA3E02400FFEE341003
:10345800908EECF0A3EFF090881EE0FF908EE7E0EE
:10346800FE04F074EE2EF582E4348EF583EFF090CE
:103478008EE2E0FEA3E064014E704D908EE7E0FF1F
:1034880004F074EE2FF582E4348EF5837406F09020
:103498008EECE0FEA3E0EEFF908EE7E0FE04F07411
:1034A800EE2EF582E4348EF583EFF0908EECE0A3F7
:1034B800E0FF908EE7E0FE04F074EE2EF582E4342F
:1034C8008EF583EFF0023550908EE7E0FF04F0743C
:1034D800EE2FF582E4348EF5837410F0908EECE0D4
:1034E800FEA3E0EEFF908EE7E0FE04F074EE2EF50A
:1034F80082E4348EF583EFF0908EECE0A3E0FF9049
:103508008EE7E0FE04F074EE2EF582E4348EF58347
:10351800EFF0908EE2E0FEA3E0EEFF908EE7E0FE93
:1035280004F074EE2EF582E4348EF583EFF0908E7D
:10353800E2E0A3E0FF908EE7E0FE04F074EE2EF5E3
:1035480082E4348EF583EFF0E4908EE8F0908EE814
:10355800E0FF908EE2E0FCA3E0FDC3EF9DE49C5009
:103568005CA3120971908EE8E075F002A4F58285DB
:10357800F083120704E5F0FF908EE7E0FE04F07494
:10358800EE2EF582E4348EF583EFF0908EE4120986
:1035980071908EE8E075F002A4F58285F083120739
:1035A80004FF908EE7E0FE04F074EE2EF582E4341A
:1035B8008EF583EFF0908EE8E004F080907B017A3E
:1035C8008E79EE908EE7E0FD7C00125551908EEAE0
:1035D800EEF0A3EFF0908EEAE0A3E0FF908EE7E034
:1035E800FE04F074EE2EF582E4348EF583EFF0904D
:1035F8008EEAE0FEA3E0EEFF908EE7E0FE04F074B2
:10360800EE2EF582E4348EF583EFF07B017A8E7925
:10361800EE908EE7E0FD7C0012695022908EF6EE67
:10362800F0A3EFF07B017A907995908F18E4F0A3DE
:103638007404F07F057E25124BCE90902FE0FEA3F8
:10364800E04E60030236D6908EF6E0FEA3E06401F9
:103658004E7010909095E0FEA3E0FF909095EEF0EC
:10366800A3EFF0908EF6E0FEA3E064024E70109097
:103678009097E0FEA3E0FF909097EEF0A3EFF09014
:103688008EF6E0FEA3E064034E7010909099E0FE81
:10369800A3E0FF909099EEF0A3EFF0908EF6E0FE95
:1036A800A3E064044E701090909BE0FEA3E0FF90AE
:1036B800909BEEF0A3EFF07B017A907995908F18AC
:1036C800E4F0A37404F07F0A7E25124BCE2290907A
:1036D8002FE0FEA3E064014E706B908EF6E0FEA32F
:1036E800E064014E700990909575F0011206AD9056
:1036F8008EF6E0FEA3E064024E700990909775F094
:10370800011206AD908EF6E0FEA3E064034E700948
:1037180090909975F0011206AD908EF6E0FEA3E048
:1037280064044E700990909B75F0011206AD7B0100
:103738007A907995908F18E4F0A37404F07F0A7E4C
:1037480025124BCE2290902FE0FEA3E064024E702B
:103758006B908EF6E0FEA3E064014E7009909095A0
:1037680075F0021206AD908EF6E0FEA3E064024EFC
:10377800700990909775F0021206AD908EF6E0FEF3
:10378800A3E064034E700990909975F0021206AD9B
:10379800908EF6E0FEA3E064044E700990909B754D
:1037A800F0021206AD7B017A907995908F18E4F0BB
:1037B800A37404F07F0A7E25124BCE22908EF6E089
:1037C800FEA3E064014E700990909575F00312060F
:1037D800AD908EF6E0FEA3E064024E7009909097DB
:1037E80075F0031206AD908EF6E0FEA3E064034E7A
:1037F800700990909975F0031206AD908EF6E0FE70
:10380800A3E064044E700990909B75F0031206AD16
:103818007B017A907995908F18E4F0A37404F07F77
:103828000A7E25124BCE2290908FE0FEA3E08EF008
:10383800120A49385700003860000138A3000238DE
:10384800B60003392500063962000800003A1490D2
:10385800908FE4F0A304F0227B017A907961787B61
:103868007C907D017E007F061205A6909043E0FEC5
:10387800A3E064014E701C909087E0FEA3E04E70B8
:10388800127D01FC7F0A12684A90908FE4F0A374BD
:1038980002F022E4909043F0A3F0227D017C007FA7
:1038A8000612684A90908FE4F0A37403F02212681D
:1038B80005E4FFFEFDFC90908112091CC31208D993
:1038C8007006909043F0A3F0909045E0FEA3E0646A
:1038D800014E70127D04FC7F0212684A90908FE4BA
:1038E800F0A37406F022909043E0FEA3E04E70121D
:1038F8007D04FC7F0212684A90908FE4F0A374085C
:10390800F022909087E0FEA3E064014E6003023A43
:1039180014909043F0A3F0A3F0A304F022909043F6
:10392800E0FEA3E064014E7010A3E0FEA3E04E7039
:103938000890908FF0A37402F0909043E0FEA3E00B
:103948004E6003023A14A3E0FEA3E04E6003023A7D
:103958001490908FF0A37408F022909063E0FEA377
:10396800E0FF909061E0FCA3E02FFFEC3EFE90901A
:1039780065E0FCA3E0FD120A7CC006C007909063D6
:10398800E0FEA3E0FFFBAA06E4F9F8D007D0061290
:1039980007E290908112092890903D120910EFEEED
:1039A800E490903BEEF0A3EFF0A312091078101208
:1039B80008EAEFEEE4909039EEF0A3EFF07B017A9D
:1039C800907939908F11E4F0A37402F07F067E009D
:1039D8007D007C00125B17909061E0FCA3E0FD7F06
:1039E800017E00125719909063E0FCA3E0FD7F016F
:1039F8007E001257ED909065E0FCA3E0FD7F017E0C
:103A08000012599090908FE4F0A304F022908EE772
:103A1800EEF0A3EFF0A3120991908EECE0FEA3E084
:103A28004E70037F0122908EE7E0A3E05401FF90DF
:103A38008EEEE4F0A3EFF0908EE7E0FEA3E0FFEE59
:103A4800C313FEEF13FF908EE7EEF0A3EFF0C2AFC3
:103A5800E4F5F1908EE7E0FEA3E0EEF5F2908EE754
:103A6800E0A3E0F5F375F40175F8AF30FCFD908E36
:103A7800EEE0FEA3E064014E7065908EECE0FEA3DC
:103A8800E064014E700575F8A2800375F8A3D2FEB4
:103A980020FEFD908EECE0FEA3E064014E701790CE
:103AA8008EE975F00112097AE5FC120612E4908E8F
:103AB800ECF0A3F08029908EE9E475F00112097A00
:103AC800E5FC120612908EE9E475F00112097AE518
:103AD800FD120612908EEC74FF75F0FE1206AD9082
:103AE8008EECE0FEA3E0D39400EE94005003023B7A
:103AF800F4908EECE0A3E08EF0120A493B1400012A
:103B08003B3400023B63000300003BA275F8A8D2D7
:103B1800FE20FEFD908EE9E475F00112097AE5FABF
:103B2800120612E4908EECF0A3F080B375F8ACD2D4
:103B3800FE20FEFD908EE9E475F00112097AE5FA9F
:103B4800120612908EE9E475F00112097AE5FB126B
:103B58000612E4908EECF0A3F0808475F8AED2FEE5
:103B680020FEFD908EE9E475F00112097AE5FA125B
:103B78000612908EE9E475F00112097AE5FB120647
:103B880012908EE9E475F00112097AE5FC1206122A
:103B9800E4908EECF0A3F0023AE775F8AFD2FE207D
:103BA800FEFD908EE9E475F00112097AE5FA120635
:103BB80012908EE9E475F00112097AE5FB120612FB
:103BC800908EE9E475F00112097AE5FC120612906C
:103BD8008EE9E475F00112097AE5FD120612908E5D
:103BE800EC74FF75F0FC1206AD023AE7E4F5F8D282
:103BF800AFFF22908EECEEF0A3EFF0E4A3F0A3F079
:103C08007B017A90792DA3120991908EECE0FEA3A6
:103C1800E08EF0120A493C4E00013CA800023C9C90
:103C280000033CC200053D8F00063D7500073C8837
:103C380000083DAB00093D80000A3D88000B3DC6E9
:103C4800000C00003DCD909045E0FEA3E064014EDD
:103C5800700D909043F0A304F0E4A3F0A3F0229039
:103C68009045E0FEA3E04E6003023DCD909043E016
:103C7800FEA3E04E6003023DCD7F0AFE1244FE2201
:103C8800909043E4F0A304F0E4A3F0A3F07F09FECE
:103C98001244FE22E4909043F0A3F0A3F0A3F02294
:103CA800909043E0FEA3E04E7003023DCDE4909077
:103CB80043F0A3F0A3F0A304F022909045E0FEA304
:103CC800E064014E7003023DCD909043E0FEA3E016
:103CD8004E6003023DCD909085F0A3F0909037F0B0
:103CE800A3F07B017A907937908F18F0A304F07FC6
:103CF8000A7E20124BCE909085E0FEA3E0FF126171
:103D0800507B017A907937908F11E4F0A37402F018
:103D18007F057E007D007C00125B177B017A90791D
:103D28005F908EFBE4F0A37404F0E4FFFE122638E3
:103D380090905FE0FCA3E0FD7F017E001265E990B2
:103D48009065E0FCA3E0FD7F017E00125990909001
:103D580061E0FCA3E0FD7F017E001257199090639B
:103D6800E0FCA3E0FD7F017E001257ED22126B09F3
:103D78007F067E001244FE227F097E001244FE2246
:103D8800E4FFFE1244FE22909045E0FEA3E06401A9
:103D98004E6032909043E0FEA3E04E7028FFFE1282
:103DA80044FE2290902DE0FEA3E064044E70077F4D
:103DB80005FE1244FE227F047E001244FE227F0785
:103DC8007E001244FE22E4908EDFF0A3F07B017A9D
:103DD80090792DA31209917E007F747D00120AA9A3
:103DE8001269CB90902DE0FEA3E0D39400EE9400EE
:103DF800400990902DE4F0A37404F07B017A907947
:103E08002D908F18E4F0A37402F07F007E21124BEE
:103E1800CE12514B909039E0FEA3E0FFE4FCFD90F8
:103E2800903D12092890903D12091078101208FD53
:103E380090903D12092890903D12091C90903BE00B
:103E4800FEA3E0FFE4FCFD1208BEA3120928E47BF0
:103E5800107A0EF9F890903D12091012082C9090E3
:103E680041EEF0A3EFF0909035E0FEA3E0D394018B
:103E7800EE94004007E4909035F0A3F07B017A902F
:103E88007953908F0BE4F0A37406F07F707E017D68
:103E9800007C00125BCF90905BE0FEA3E0B4FF32A1
:103EA800EEB4FF2E7B017A907953C001909035E0F3
:103EB800FEA3E0FF7C007D2A12064674292FF974C0
:103EC800903EA801FC7D01D0017E007F081205A666
:103ED8008026909035E0FEA3E0FF7C007D2A120644
:103EE8004674292FF974903EFA7B0178537C907DB3
:103EF800017E007F081205A6125A5990902DE0FE07
:103F0800A3E064044E70177BFF7A6F794E908F1888
:103F1800F0A3740BF07F007E30124BCE8029909076
:103F280035E0FEA3E0FF7C007D2A12064674052FCB
:103F3800F974903EFA7B01908F18E4F0A37414F0A2
:103F48007F007E30124BCE7BFF7A6F7943908F18BB
:103F5800E4F0A3740BF07F007E31124BCE909035C5
:103F6800E0FEA3E090900375F02A120965EE75F063
:103F78002AA42583F583E0FEA3E0FF909091EEF05C
:103F8800A3EFF0124CEB7FA07E0F1267727F097EC1
:103F9800001244FE22908EE3120991908EE6ECF016
:103FA800A3EDF0908EE6E0FEA3E07802C333CE33B3
:103FB800CED8F92410F582746F3EF583E493FE742D
:103FC8000193FF908EE3120971EE8FF0120789902A
:103FD8008EE6E0FEA3E07802C333CE33CED8F924D0
:103FE80012F582746F3EF583E493740193FF908E0B
:103FF800E3120971900008EF120624908EE312096B
:10400800719000081205E5120A23401F004056016E
:1040180040B0020000410E7BFF7A6179CFC003C037
:1040280002C001908EE31209719000091209CA902A
:104038008EE3120971900002E4F5F01207A8908E41
:10404800E3120971900004E4F5F01207A822908E9B
:10405800E31209711206D9FFAEF0908EE3120971CE
:10406800E92402F9E43AFA908F18E4F0A304F01274
:104078005460908EE3120971900002120704FF90B9
:104088008EE3120971900004E5F08FF01207A87B07
:10409800FF7A5879C1C003C002C001908EE31209AB
:1040A800719000091209CA227BFF7A6A7939C00324
:1040B800C002C001908EE31209719000091209CA6A
:1040C8007BFF7A6A796FC003C002C001908EE31249
:1040D800097190000C1209CA908EE31209719000C0
:1040E80002E4F5F01207A8908EE31209719000041B
:1040F800E4F5F01207A8908EE3120971900006E427
:10410800F5F01207A8227B007A007900C003C002EC
:10411800C001908EE31209719000091209CA7B0050
:104128007A007900C003C002C001908EE3120971C1
:1041380090000C1209CA908EE3120971900002E4F3
:10414800F5F01207A8908EE3120971900004E4F5C7
:10415800F01207A8908EE3120971900006E4F5F0BA
:104168001207A822908EE7EEF0A3EFF0A3120991B0
:10417800908EECE0FEA3E04E70037F0122908EE764
:10418800E0A3E05401FF908EEEE4F0A3EFF0908EF0
:10419800E7E0FEA3E0FFEEC313FEEF13FF908EE708
:1041A800EEF0A3EFF0C2AFE4F5F1908EE7E0FEA3E6
:1041B800E0EEF5F2908EE7E0A3E0F5F375F4017513
:1041C800F88F30FCFD908EEEE0FEA3E064014E70A7
:1041D80057908EECE0FEA3E064014E701A75F882E9
:1041E800908EE975F00112097A1205CCF5FCE4907D
:1041F8008EECF0A3F0802C75F883908EE9E475F0CE
:104208000112097A1205CCF5FC908EE9E475F001EB
:1042180012097A1205CCF5FD908EEC74FF75F0FE4C
:104228001206ADD2FE20FEFD908EECE0FEA3E0D398
:104238009400EE94005003024334908EECE0A3E027
:104248008EF0120A49425D00014279000242A40040
:1042580003000042DD75F888908EE9E475F00112DC
:10426800097A1205CCF5FAE4908EECF0A3F002433B
:104278002775F88C908EE9E475F00112097A120519
:10428800CCF5FA908EE9E475F00112097A1205CCA2
:10429800F5FBE4908EECF0A3F002432775F88E90BE
:1042A8008EE9E475F00112097A1205CCF5FA908EC0
:1042B800E9E475F00112097A1205CCF5FB908EE954
:1042C800E475F00112097A1205CCF5FCE4908EEC45
:1042D800F0A3F0804A75F88F908EE9E475F001122A
:1042E800097A1205CCF5FA908EE9E475F001120905
:1042F8007A1205CCF5FB908EE9E475F00112097A83
:104308001205CCF5FC908EE9E475F00112097A12D9
:1043180005CCF5FD908EEC74FF75F0FC1206ADD25D
:10432800FE20FE0302423080F8024230E4F5F8D263
:10433800AFFF22C0E0C083C082C0D075D010AF9F4D
:10434800750C008F0D5397FEE529D39400400302A6
:1043580044F5752A00E522120A23436F0043BE0183
:10436800447A02000044F2E521650D7002E50C6014
:10437800030244F5908B72E50DF075230175220157
:104388007526FF7527FFE526650CE527650D25E0F1
:10439800FFE433FE74102FF582746C3EF583E493CA
:1043A800F50E740193F50FE526FFE50EF526EF658A
:1043B8000FF5270244F5AE23052374722EF582E427
:1043C800348BF583E50DF0E523C39407502DE526DE
:1043D800650CE527650D25E0FFE433FE74102FF525
:1043E80082746C3EF583E493F50E740193F50FE542
:1043F80026FFE50EF526EF650FF527E52364077020
:104408004E908B73E064107046E526650CE52765D1
:104418000D25E0FFE433FE74102FF582746C3EF531
:1044280083E493F50E740193F50FE526FFE50EF589
:1044380026EF650FF527908B78E02409F524D394AF
:10444800FC40067522000244F57522020244F5E597
:1044580023C3940850030244F5908B79E0B5260DE8
:10446800908B78E0B527067528007529027522001B
:10447800807BAE23052374722EF582E4348BF5839A
:10448800E50DF0E52414FFE523C39F502DE52665CF
:104498000CE527650D25E0FFE433FE74102FF58247
:1044A800746C3EF583E493F50E740193F50FE526DD
:1044B800FFE50EF526EF650FF527E523C3952440A4
:1044C8002C74712524F582E4348BF583E0B5261528
:1044D80074702524F582E4348BF583E0B5270675DE
:1044E80028007529027522008003752200D0D0D0DB
:1044F80082D083D0E032908EF6EEF0A3EFF0908E6B
:10450800F6E0FEA3E025E0FFEE33FE74A12FF5826E
:1045180074903EF583E0FEA3E0FF908EF8EEF0A3E2
:10452800EFF0908EF6E0FEA3E08EF0120A494546C1
:10453800000945C3000B4601000D00004679909024
:1045480063E0FEA3E0FF909061E0FCA3E02FFFECA6
:104558003EFE909065E0FCA3E0FD120A7CC006C018
:1045680007909063E0FEA3E0FFFBAA06E4F9F8D009
:1045780007D0061207E290908112092890905FE018
:10458800FCA3E0FD7F017E001265E9909065E0FCE8
:10459800A3E0FD7F017E00125990909061E0FCA39A
:1045A800E0FD7F017E00125719909063E0FCA3E0C4
:1045B800FD7F017E001257ED024679909067E0FC7E
:1045C800A3E0FD7F027E001265E990906DE0FCA3F8
:1045D800E0FD7F027E00125990909069E0FCA3E014
:1045E800FD7F027E0012571990906BE0FCA3E0FD5E
:1045F8007F027E001257ED8078909067E0FCA3E080
:10460800FD7F027E001265E990906DE0FCA3E0FD5D
:104618007F027E00125990909069E0FCA3E0FD7F34
:10462800027E0012571990906BE0FCA3E0FD7F0218
:104638007E001257ED909073E0FCA3E0FD7F047EAE
:10464800001265E9909079E0FCA3E0FD7F047E000C
:10465800125990909075E0FCA3E0FD7F047E001253
:104668005719909077E0FCA3E0FD7F047E00125775
:10467800ED908EF8E0FEA3E0FF126A0222429175E7
:10468800000042917700004291790000602A90036F
:1046980000004754333030000000000000000000E4
:1046A800000000000000051406D6000100630001A8
:1046B800176F0001176F051406D6602090A100013E
:1046C8000003000400050006000700080009000AAE
:1046D800000C000D00120013001500160000C100A8
:1046E800011F006100885200000000000000000067
:1046F80000000000000000000000000000000000B2
:1047080000000000000000000000000000000000A1
:104718000000000000000000000000000000000091
:104728000000000000000000000000000000000081
:104738000000000000000000000000000000000071
:104748000000000000000000000000000000000061
:104758000000000000000000000000000000000051
:104768000000000000000000000000000000000041
:104778000000000000000000000000000000000031
:104788000000000000000000000000000000000021
:104798000000000000000000000000000000000011
:1047A8000000000000000000000000000000000001
:1047B80000000000000000000000000000000000F1
:1047C80000000000000000000000000000000000E1
:1047D80000000000000000000000000000000000D1
:1047E8000000000000000041895200418953004147
:1047F80089540041895500022B000000E4908EE6A0
:10480800F0908B73E0120A23481D03488E0648E493
:10481800100000495A908B76E0FEA3E04E600F909E
:104828008B76E0FEA3E0D39473EE940040037F0000
:1048380022908C9EE521F0A37403F0908B76E0A380
:10484800E025E0908CA0F0E02405F525908B74E03D
:10485800FEA3E025E0FFEE33908EE4F0A3EFF090A6
:104868008B74E0FEA3E0FF7B017A8C79A1908CA089
:10487800E0FD908EECE4F0A3EDF0123A15908EE690
:104888007401F002495D908B74E0FEA3E0FF7B01A8
:104898007A8B7976908EECE4F0A37402F012416C76
:1048A800752508E4908EE3F0908EE3E0C3940650FB
:1048B80023E02472F582E4348BF583E0FF908EE3E5
:1048C800E0249EF582E4348CF583EFF0908EE3E0EB
:1048D80004F080D4908EE67401F08079908B76E0B5
:1048E800FEA3E04E600F908B76E0FEA3E0D3947DAC
:1048F800EE940040037F0022908B74E0FEA3E0FF5B
:104908007B017A8B7979908B78E0FD908EECE4F0DE
:10491800A3EDF012416C752508E4908EE3F0908EBB
:10492800E3E0C394065023E02472F582E4348BF567
:1049380083E0FF908EE3E0249EF582E4348CF583D7
:10494800EFF0908EE3E004F080D4908EE67401F0EE
:1049580080037F0022908EE6E0FF22908EDF12090E
:10496800917E007F207D007B017A917997120AA9B8
:10497800908EDF120971908822120991908EDF12B1
:104988000971E92402F9E43AFA908825120991900C
:104998008EDF120971E92404F9E43AFA90882812A2
:1049A8000991908EDF120971E92406F9E43AFA9028
:1049B800882B120991908EDF120971E92408F9E415
:1049C8003AFA90882E120991908EDF120971E92423
:1049D8000AF9E43AFA908831120991908EDF1209A7
:1049E80071E9240CF9E43AFA908834120991908E0E
:1049F800DF120971E9240EF9E43AFA9088371209AE
:104A080091908EDF120971E92410F9E43AFA90883E
:104A18003A120991908EDF120971E92412F9E43AE9
:104A2800FA90883D120991908EDF120971E92414D9
:104A3800F9E43AFA908840120991908EDF120971D0
:104A4800E92416F9E43AFA908843120991908EDF26
:104A5800120971E92418F9E43AFA90884612099182
:104A6800908EDF120971E9241AF9E43AFA9088491C
:104A7800120991908EDF120971E9241CF9E43AFABF
:104A880090884C120991908EDF120971E9241EF961
:104A9800E43AFA90884F12099122908EE112099116
:104AA800E4908EE4F0A3F0908EE11209711206D919
:104AB80045F07055909043F0A304F090907BE0FE91
:104AC800A3E0D39400EE9400400A90907B74FFF525
:104AD800F01206AD90907BE0FEA3E04E6003024B1F
:104AE80086909061E0FEA3E0FF90907BEEF0A3EF4C
:104AF800F0908EE1120971E475F001120789908E29
:104B0800E4E4F0A37402F08075908EE1120971124A
:104B180006D9640145F07066909043F0A37402F0E2
:104B280090907DE0FEA3E0D39400EE9400400A90BC
:104B3800907D74FFF5F01206AD90907DE0FEA3E045
:104B48004E703B909063E0FEA3E0FF90907DEEF006
:104B5800A3EFF0A3E0FEA3E0D39400EE9400400A94
:104B680090907F74FFF5F01206AD908EE1120971F6
:104B7800E4F5F0120789908EE4E4F0A304F0E4FF72
:104B8800FEFDFC90908112091CD31208D9401590A3
:104B9800908112091074FFFBFAF9F81207D590906A
:104BA80081120928E4FFFEFDFC90908112091CC3C4
:104BB8001208D97008908EE4F0A37403F0908EE484
:104BC800E0FEA3E0FF22908F13EEF0A3EFF0A31214
:104BD8000991908F13E0A3E05401908F1AF0908F01
:104BE80013E0FEA3E0FFEEC313FEEF13FF908F1355
:104BF800EEF0A3EFF0E4F5F1908F13E0FEA3E0EE02
:104C0800F5F2908F13E0A3E0F5F375F40175F88FD2
:104C180030FCFD908F1AE0603C908F18E0FEA3E016
:104C2800D39400EE9400402D75F883908F15E475A9
:104C3800F00112097A1205CCF5FC908F15E475F095
:104C48000112097A1205CCF5FDD2FE908F1874FF77
:104C5800F5F01206AD75F88F908F18E0FEA3E0C34B
:104C68009402EE9400404B908F15E475F001120900
:104C78007A1205CCF5FA908F15E475F00112097ACD
:104C88001205CCF5FB908F15E475F00112097A1224
:104C980005CCF5FC908F15E475F00112097A120520
:104CA800CCF5FDD2FE908F1874FF75F0FE1206AD9C
:104CB80080A6908F18E0FEA3E04E602375F88C90D4
:104CC8008F15E475F00112097A1205CCF5FA908F68
:104CD80015E475F00112097A1205CCF5FBD2FEE451
:104CE800F5F8227B017A90792D908EFB120991902C
:104CF8009035E0FEA3E090902975F02A120965EE40
:104D080075F02AA42583F583E0FEA3E0FF90903593
:104D1800E0FCA3E090902B75F02A120965EC75F081
:104D28002AA42583F583E0FCA3E0C39FFDEC9EFC49
:104D3800E412041C908EF3120928909035E0FEA32B
:104D4800E090901975F02A120965EE75F02AA425ED
:104D580083F583E0FEA3E0FF909035E0FCA3E090AC
:104D6800901B75F02A120965EC75F02AA42583F5C5
:104D780083E0FCA3E0C39FFDEC9EFCE412041C90BE
:104D88008EF7120928908EF712091C908EF31209DB
:104D98001012030190904B120928909035E0FEA361
:104DA800E090901975F02A120965EE75F02AA4258D
:104DB80083F583E0FCA3E0FDE412041C90904B1201
:104DC800091C1201F8908EF3120928909035E0FE24
:104DD800A3E090902975F02A120965EE75F02AA4CF
:104DE8002583F583E0FCA3E0FDE412041C908EF318
:104DF80012091C12010390904F12092822908EE08C
:104E0800EEF0A3EFF0A3ECF0A3EDF0E47818F608C9
:104E1800F608F6A3F0A3F07BFF7A6E791078E67CAB
:104E28008E7D01FE7F801205A6908EE0E0FEA3E055
:104E38002400FFEE3410908EE4F0A3EFF0908EE49F
:104E4800E0FEA3E0FF908820EEF0A3EFF090881F2B
:104E58007403F090881EE0FF7818E60624E6F582D1
:104E6800E4348EF583EFF0E60624E6F582E4348E2A
:104E7800F5837403F0908EE4E0FEA3E0EEFFE6060F
:104E880024E6F582E4348EF583EFF0908EE4E0A317
:104E9800E0FFE60624E6F582E4348EF583EFF09031
:104EA8008EE2E0FEA3E0EEFFE60624E6F582E434B7
:104EB8008EF583EFF0908EE2E0A3E0FFE60624E6AD
:104EC800F582E4348EF583EFF07B017A8E79E6E69D
:104ED800FD7C001255517819A60608A60718E608A1
:104EE800E6FF7818E60624E6F582E4348EF583EFCB
:104EF800F008E6FE08E6EEFF7818E60624E6F582F6
:104F0800E4348EF583EFF07B017A8E79E6E6FD7C5A
:104F1800001269502290908FE0FEA3E064034E6077
:104F280003024FB190917575F0011206AD9091751D
:104F3800E0FEA3E0C39404EE9400406DE490917504
:104F4800F0A3F07B017A907993124AA2908EDFEE5B
:104F5800F0A3EFF0908EDFE0FEA3E064014E700A4C
:104F68007D01FC7F0612684A802A908EDFE0FEA34E
:104F7800E064024E700A7D04FC7F0212684A8014C5
:104F8800908EDFE0FEA3E064034E7008909177F006
:104F9800A3740AF090903D120910E47B01FAF9F825
:104FA8001207D590903D12092890908FE0FEA3E05B
:104FB80064014E7076909093F0A3F0909177E0FEA4
:104FC800A3E04E603A90917774FFF5F01206AD9029
:104FD8009179E0FEA3E0FFC374019FFFE49E9091E6
:104FE80079F0A3EFF0909179E0FEA3E04E60109085
:104FF8009033E0FEA3E04E70067F14FE120003908B
:10500800909FE0FEA3E0D39400EE9400400A9090B5
:105018009F74FFF5F01206AD90909FE0FEA3E06448
:10502800014E7007FDFC7F0B12684A22908EDFEF5D
:10503800F0E02404F582E43488F583E0120A235171
:105048004000506F01506F02508C0450AA0850AABB
:105058000950C80A50C80B50E60C50E60D51040E12
:105068005122100000514A908EDFE075F002A4240E
:105078000CF9748835F0FA7B017D017C00E4FFFEB1
:1050880012341622908EDFE075F002A4240CF97415
:105098008835F0FA7B017D017C007F017E001234A7
:1050A8001622908EDFE075F002A4240CF97488357E
:1050B800F0FA7B017D017C007F0A7E001234162203
:1050C800908EDFE075F002A4240CF9748835F0FAAC
:1050D8007B017D017C007F0B7E0012341622908EAE
:1050E800DFE075F002A4240CF9748835F0FA7B012E
:1050F8007D017C007F0D7E0012341622908EDFE049
:1051080075F002A4240CF9748835F0FA7B017D014E
:105118007C007F037E0012341622908EDFE075F04B
:1051280002A4240CF9748835F0FA7B017D017C0017
:105138007F097E00123416227D107C00E4FFFE12E7
:105148004E052290902DE0FEA3E0D39400EE94004B
:10515800400990902DE4F0A37404F07B017A9079D3
:105168002D908F18E4F0A37402F07F007E21124B7B
:10517800CE909031E0FEA3E0D39464EE9400400911
:10518800909031E4F0A37464F0909031E0FEA3E0D5
:10519800C3940AEE94005009909031E4F0A3740A85
:1051A800F0909031E0FEA3E0FF125F1C7B017A9043
:1051B8007931908F18E4F0A304F07F007E12124B2F
:1051C800CE909033E0FEA3E0D39401EE9400400823
:1051D800909033E4F0A304F0909033E0FEA3E0C392
:1051E800EE94005007E4909033F0A3F0909033E0F1
:1051F800FEA3E0FFC374019FFFE49EFE12642F7BB1
:10520800017A907933908F18E4F0A304F0FF7E12AE
:10521800124BCE90902FE0FEA3E0C39403EE9400CF
:10522800400990902FE4F0A37403F090902FE0FED3
:10523800A3E0D39400EE94005007E490902FF0A3DD
:10524800F07B017A90792F908F18E4F0A304F07F17
:10525800FF7E0F124BCE22908EE01209917E007FC6
:10526800807D007B017A89795C120AA9908EE01210
:1052780009711205CC908956F0908EE01209719050
:1052880000011205E5908957F0908820E0FEA3E020
:10529800FF908958EEF0A3EFF0908957E06403700F
:1052A80074908EE01209719000021205E5FFC31395
:1052B800FF90895AE4F0A3EFF0E47818F67818E63E
:1052C800FF90895AE0FCA3E0FDC3EF9DE49C506C7D
:1052D800908EE0120971E675F002900003120965DC
:1052E8001205E5FE908EE01209717818E675F00255
:1052F8009000041209651205E57C002400FFEC3ECD
:10530800FE7818E675F00290895C120965EEF0A344
:10531800EFF00680A8908EE0120971900004120543
:10532800E5FE908EE01209719000051205E57C00FB
:105338002400FFEC3E90895AF0A3EFF07B017A89B4
:105348007956C002C0017A8A7972908EE612099164
:10535800D001D0021256367B017A89795622908E76
:10536800ECEEF0A3EFF07B017A90792D908EF0129D
:105378000991908EECE0FEA3E08EF0120A4953AD3D
:10538800000153920002000053C6909037E0FEA33C
:10539800E0C39414EE94005025909037E475F00122
:1053A8001206AD8019909037E0FEA3E0D39401EE89
:1053B8009400400A90903774FFF5F01206AD7B0117
:1053C8007A907937908F18E4F0A37402F07F477EC3
:1053D80020124BCE7B017A907973908EFBE4F0A378
:1053E8007406F0E4FFFE122638909073E0FCA3E008
:1053F800FD7F047E001265E9909079E0FCA3E0FD52
:105408007F047E00125990909075E0FCA3E0FD7F28
:10541800047E00125719909077E0FCA3E0FD7F040A
:105428007E001257EDE4908EEEF0A3F07B017A8EA9
:1054380079EE908F18F0A37402F07F107E11124B52
:10544800CE7B017A8E79EE908F18E4F0A37402F087
:105458007F127E11124BCE22908F13EEF0A3EFF045
:10546800A3120991908F13E0A3E05401908F1AF0D2
:10547800908F13E0FEA3E0FFEEC313FEEF13FF903F
:105488008F13EEF0A3EFF0E4F5F1908F13E0FEA395
:10549800E0EEF5F2908F13E0A3E0F5F375F40175F3
:1054A800F8AF30FCFD908F18E0FEA3E0D39400EE37
:1054B8009400500302554DD2FE20FEFD908F1AE055
:1054C800703D908F18E0FEA3E0D39400EE94004066
:1054D8002E908F15E475F00112097AE5FA1206127A
:1054E800908F15E475F00112097AE5FB1206129007
:1054F8008F1A7401F0908F1874FFF5F01206AD90B2
:105508008F1AE0B4019F908F18E0FEA3E0D39400B7
:10551800EE94004090908F15E475F00112097AE539
:10552800FC120612908F15E475F00112097AE5FD58
:10553800120612E4908F1AF0908F1874FFF5F0128B
:1055480006AD0254ADE4F5F822908FEB1209919064
:105558008FEEECF0A3EDF074FFA3F0A3F0A374803A
:10556800F0A37405F0E4A3F0908FEE74FFF5F01249
:1055780006C345F0700302561E908FEBE475F001E8
:1055880012097A1205CC908FF4F07B017A8F79F4A6
:10559800908FFA120991126045908FF0E0FCA3E019
:1055A800FD908FF4E0FEEC6EFEEDFF908FF0EEF0D4
:1055B800A3EFF0E4908FF5F0A3F0908FF5E0FEA351
:1055C800E0C39408EE64809480509D908FF0E0FED4
:1055D800A3E0EE30E721908FF0A3E025E0FFEE3363
:1055E800FEA3E0FCA3E0FDEE6CFEEF6DFF908FF0F4
:1055F800EEF0A3EFF08013908FF0E0FEA3E025E03B
:10560800FFEE33908FF0F0A3EFF0908FF5E475F094
:10561800011206AD80A47B017A8F79F0908FFA127F
:105628000991125DE3908FF0E0FEA3E0FF22908ED7
:10563800E3120991E47819F608F608F608F6908E50
:10564800E3120971E92406F9E43AFA908EE912099D
:10565800917B007A007900908EE6120991908EE392
:105668001209719000021207042400FFE5F034F0DB
:105678007819F608A607908EE312097190000112B6
:1056880005E5120A23569D03571806571810571890
:105698008300005718E4781BF608F6908EE3120989
:1056A80071900004120704FF781BE6FC08E6C39F0C
:1056B800EC95F0505B908EE3120971E92406F9E449
:1056C8003AFA18E6FE08E625E0FFEE33FEE92FF980
:1056D800EA3EFA1206D9FFAEF018E6FC08E6FD78B5
:1056E80019E6FA08E62DFDEA3CFC90882275F003DD
:1056F800ED120965EC75F003A42583F58312097191
:10570800EE8FF0120789781C06E618700106808B68
:1057180022908EFAEEF0A3EFF0A3ECF0A3EDF09058
:105728008EFCE0FEA3E0FF7C007D3C120658A3EE51
:10573800F0A3EFF0908EFCE0FEA3E0FF7C007D3C40
:10574800120658908F00ECF0A3EDF0908EFAE0A3CB
:10575800E030E02A7B017A8F7900908F18E4F0A37B
:1057680004F07F047E20124BCE7B017A8E79FE9066
:105778008F18E4F0A304F07F057E20124BCE908EA4
:10578800FAE0A3E030E12A7B017A8F7900908F1844
:10579800E4F0A304F07F217E20124BCE7B017A8EA9
:1057A80079FE908F18E4F0A304F07F227E20124B3C
:1057B800CE908EFAE0A3E030E22A7B017A8F79005E
:1057C800908F18E4F0A304F07F417E20124BCE7B2B
:1057D800017A8E79FE908F18E4F0A304F07F427E60
:1057E80020124BCE22908EFAEEF0A3EFF0A3ECF04D
:1057F800A3EDF0908EFCE0FEA3E0FF7C007D3C1260
:105808000658A3EEF0A3EFF0908EFCE0FEA3E0FFB5
:105818007C007D3C120658908F00ECF0A3EDF090D0
:105828008EFAE0A3E030E02A7B017A8F7900908F2E
:1058380018E4F0A304F07F067E20124BCE7B017A99
:105848008E79FE908F18E4F0A304F07F077E201273
:105858004BCE908EFAE0A3E030E12A7B017A8F7973
:1058680000908F18E4F0A304F07F237E20124BCE23
:105878007B017A8E79FE908F18E4F0A304F07F24E0
:105888007E20124BCE908EFAE0A3E030E22A7B0114
:105898007A8F7900908F18E4F0A304F07F437E207C
:1058A800124BCE7B017A8E79FE908F18E4F0A30418
:1058B800F07F447E20124BCE22908EE8EEF0A3EFCC
:1058C800F0A3ECF0A3EDF07B017A90792DA31209F7
:1058D80091908EE8E0FEA3E08EF0120A4959250F58
:1058E800FF593D110159011110590D111259191281
:1058F80000593112010000598F908EEAE0FEA3E0B2
:10590800FF1211E522908EEAE0FEA3E0FF1217795C
:1059180022908EEAE0FEA3E0FF12698E22908EEAC2
:10592800E0FEA3E0FF126AA522908EEAE0FEA3E063
:10593800FF1267BF22909085E0FEA3E04E7034907E
:105948008EEAE0FEA3E0FF90905FEEF0A3EFF07B1D
:10595800017A90795F908F18E4F0A304F0FF7E112C
:10596800124BCE90905FE0FCA3E0FD7F017E001219
:1059780065E9227B017A90795F908F18E4F0A3049F
:10598800F0FF7E11124BCE22908EFAEEF0A3EFF0CC
:10599800A3ECF0A3EDF0908EFAE0A3E030E032A3A0
:1059A800E0FEA3E0FF909065E0FCA3E0C39FFFEC5E
:1059B8009EFEEF2401FFE43E908EFEF0A3EFF090F0
:1059C8009065E0FEA3E0FF908F00EEF0A3EFF0807B
:1059D80010908EFCE0FEA3E0FF908F00EEF0A3EFA6
:1059E800F0908EFAE0A3E030E02A7B017A8F79000C
:1059F800908F18E4F0A304F07F027E20124BCE7B38
:105A0800017A8E79FE908F18E4F0A304F07F037E6C
:105A180020124BCE908EFAE0A3E030E1157B017A9C
:105A28008F7900908F18E4F0A304F07F257E201270
:105A38004BCE908EFAE0A3E030E2157B017A8F79A5
:105A480000908F18E4F0A304F07F457E20124BCE1F
:105A580022909037E0FEA3E04E7042909085F0A32C
:105A6800F07B017A907973908EFBF0A37404F0E4D4
:105A7800FFFE1226387B017A907973785F7C907DDF
:105A8800017E007F081205A67B017A9079737867FA
:105A98007C907D017E007F081205A680519090378A
:105AA800E0FEA3E0D39400EE94004042909085E499
:105AB800F0A304F0FB7A907973908EFBE4F0A37462
:105AC80004F0E4FFFE1226387B017A907973785F40
:105AD8007C907D017E007F081205A67B017A907973
